:02000000ff00ff
:080002004c6174746963650030
:17000a00694345637562653220323032302e31322e32373934330071
:16002100506172743a2069434534304858344b2d545131343400f9
:1a003700446174653a204f6374203320323032342032313a33303a333200b7
:0200510000ffae
:040053007eaa997e6a
:02005700510056
:0200590001059f
:03005b00920020f0
:03005e00620367d3
:0300610072011019
:0300640082000017
:02006700110086
:02006900010193
:20006b00000000000000000000000000000000000000000000000000000000000000000075
:20008b00000000000000000000000000000000000000000000000000000000000000000055
:2000ab00000000000000000000000000000000000000000000000000000000000000000035
:0d00cb000000000000000000000000000028
:201cf200800000000000000000000000000000000000000000000000000000000000000052
:201d12000000000000000000000000000000000000000000000000000000000000000000b1
:201d3200000000000000000000000000000000000000000000000000000000000000000091
:0d1d52000000000000000000000000000084
:201d5f00000000000000000000000000000000000000000000000000000000000000000064
:201d7f00000000000000000000000000000000000000000000000000000000000000000044
:201d9f00000000000000000000000000000000000000000000000000000000000000000024
:0d1dbf000000000000000000000000000017
:201dcc00800000000000000000000000000000000000000000000000000000000000000077
:201dec000000000000000000000000000000000000000000000000000000000000000000d7
:201e0c000000000000000000000000000000000000000000000000000000000000000000b6
:0d1e2c0000000000000000000000000000a9
:201e3900000100000000000000000000000000000000000000000000000000000000000088
:201e5900000000000000000000000000000000000000000000000000000000000000000069
:201e7900000000000000000000000000000000000000000000000000000000000000000049
:0d1e9900000000000000000000000000003c
:201ea60000000000000000000000000000000000000000000000010000000000000000001b
:201ec6000000000000000000000000000000000000000000000000000000000000000000fc
:201ee6000000000000000000000000000000000000000000000000000000000000000000dc
:0d1f060000000000000000000000000000ce
:201f13000000000000000000000000000000000000000000000000000000000000000000ae
:201f330000000000000000000000000000000000000000000000000000000000000000008e
:201f530000000000000000000000000000000000000000000000000000000000000000006e
:0d1f73000000000000000000000000000061
:201f800000020000000000000000000000000000000000000000000000000000000000003f
:201fa000000000000000000000000000000000000000000000000000000000000000000021
:201fc000000000000000000000000000000000000000000000000000000000000000000001
:0d1fe00000000000000000000000000000f4
:201fed000000000000000000000000000000000000000000000000000000000000000000d4
:20696900000000000000000000000000080000000000000000000000000000000000000006
:0d6989000000000000000000000000000001
:206996000000000000000000000000000000000000000000000000000000000000000000e1
:2069b6000000000000000000000000000000000000000000000000000000000000000000c1
:2069d600000000000000000000000000100000000000000000000000000000000000000091
:0d69f6000000000000000000000000000094
:206a0300000000000000000000000000000000000000000000000000000000000000000073
:206a2300000000000000000000000000000000000000000000000000000000000000000053
:206a4300000000000000000000000000000000000000000000000000000000000000000033
:0d6a63000000000000000000000000000026
:206a7000000000000000000000000000000000000000000000000000000000000000000006
:206a90000000000000000000000000000000000000000000000000000000000000000000e6
:206ab0000000000000000000000000000000000000000000000000000000000000000000c6
:0d6ad00000000000000000000000000000b9
:206add00000000000000000000000000000000000000000000000000000000000000000099
:206afd00000000000000000000000000000000000000000000000000000000000000000079
:206b1d00000000000000000000000000000000000000000000000000000000000000000058
:0d6b3d00000000000000000000000000004b
:206b4a0000000000000000000000000000000000000000000000000000000000000000002b
:206b6a0000000000000000000000000000000000000000000000000000000000000000000b
:206b8a000000000000000000000000000000000000000000000000000000000000000000eb
:0d6baa0000000000000000000000000000de
:206bb7000000000000000000000000000000000000000000000000000000000000000000be
:206bd70000000000000000000000000000000000000000000000000000000000000000009e
:206bf70000000000000000000000000000000000000000000000000000000000000000007e
:0d6c17000000000000000000000000000070
:206c2400000000000000000000000000000000000000000000000000000000000000000050
:206c4400000000000000000000000000000000000000000000000000000000000000000030
:206c6400000000000000000000000000000000000000000000000000000000000000000010
:0d6c84000000000000000000000000000003
:206c91000000000000000000000000000000000000000000000000000000000000000000e3
:206cb100000000000000000000000000000000000000014000000000000000000000000082
:206cd1000000000000000000000000000000000000000000000000000000000000000000a3
:0d6cf1000000000000000000000000000096
:206cfe00000000000000000000000000000000000000000000000000000000000000000076
:206d1e000000000000000000000000000000000000000080000000000000000000000000d5
:206d3e00000000000000000000000000000000000000000000000000000000000000000035
:0d6d5e000000000000000000000000000028
:206d6b000038000000000000000000000000000000000000000000000000000000000000d0
:206d8b000000000000000000000000000000000000020000000000000000000000000020c6
:206dab00034e5040000000000000000000000000000000019896414000000001e0008000d6
:0d6dcb0000000000000000000000000000bb
:206dd80000000000000000000000000000000000000000000000000000000000000000009b
:206df800000000000000000000000000000000000000000000000000000000000000000477
:206e180001500500000070000000000000000000000000070b3b8240000000000f00000076
:0d6e3800000000000000000000000000004d
:206e450000000000000000000000000000000000000000000000000000000000000000002d
:206e6500000000000000000000000000000000000000000000000280001800000002000071
:206e850001cf04400800580000000000000000000000880100f739d880000001e996800068
:0d6ea50004000000000004000000000000d8
:206eb2000000000000000000000000000000000000000000000000000000000000000000c0
:206ed20000000000000000000000000000000000000000000000028000000000000a000014
:206ef20001dc34000800000000000000e00000000000800d80f43ec0400000000e960000a4
:0d6f12000000000000000a00000000000068
:206f1f00200000000000000000000000000000000000000000000100000000000000000031
:206f3f00000000000000000000000000000000000000000000000000000a00000002003cea
:206f5f0060cea000000001800000000000000000000000000036a80000000000e9968000e6
:0d6f7f000000000000000000000000000005
:206f8c000000000000000000000000000000000000000000000001000000000000000000e4
:206fac000000000000000000000000000000000000000000000000000010000000000004b1
:206fcc0001e000000000000000000000000000000000000000082800000000002c960000d2
:0d6fec000000000000000000000000000098
:206ff900000000000000000000000000000000000300000000000100000000000000000074
:207019000000000000000000000000000000000000000000000000000000d700000000067a
:207039006a4a50420000000d3941000000000000000000000e5a290080001600e996800044
:0d705900000000000000000000000000002a
:2070660000000000000000000000000000000000000000000000000000000000000000000a
:20708600000000000000000000000000000000000000000000000010000098140000000c22
:2070a60000d0210000000001801400000000000000000007101c16c0000000002e96004037
:0d70c60000000000000000000000000000bd
:2070d30000000000000000000000000000000000000000000000000000000000000000009d
:2070f300000000000000000000000000000000000000000000000000000000000000000677
:207113006cccfd00000000000000002000000000000000850837e9c000000001e89680405b
:0d713300000000000000000000000000004f
:2071400000000000000000000000000000000000000000000000000000000000000000002f
:20716000000000000000000000000000000000000000000000000000090000000000000006
:20718000345bff00000000000000000000000000000000071033d60000001c2c0c96000057
:0d71a00000000000000000000000000000e2
:2071ad000000000000000000000000000000000000000000000000000000000000000000c2
:2071cd00000000000000000000000000000000000000000000000000081a0000000000067a
:2071ed00036c5e0200000000000000000000000000000008011a1bc000000428e89681008a
:0d720d000000000000000000000000000074
:20721a00000000000000000000000000000000000000000000000000000000000000000054
:20723a0000000000000000000000000000000000000000000000000005000000000000002f
:20725a000170ff00000000000000000000000000000000010a7618000000366c0f960000c4
:0d727a000000000000000000000000000007
:207287000000000000000000000000000000000000000000000000000000000000000000e7
:2072a70000000000000000000000000000000000000000000000000001001f3e80000026c3
:2072c7006d4c0a0000003800000000000000000000000001000000000200002de99680007d
:0d72e700000000000000000000000000009a
:2072f40000000000000000000000000000000000000000000000000000000000000000007a
:207314000000000000000000000000000000000000000000000000000000dc140000002c3d
:2073340020000a00000008000000000000000000000000078000000000003c740a96000030
:0d735400000000000000000000000000002c
:2073610000000000000000000000000000000000000000000000000000000000000000000c
:207381000000000000000000000000005000000000000000000000000700fb091080000001
:2073a100016a0102000000000000000000000000000000111f000000000e1400c92b000018
:0d73c10000000000000000000000000000bf
:2073ce0000000000000000000000000000000000000000000000000000000000000000009f
:2073ee000000000000001000000000002000000000000000000000000080900800400000f7
:20740e0002f00000000000000000000000000000000000259c00000000003601ec71000017
:0d742e000000000000000000000000000051
:02743b0000004f
:02743d0011013b
:02743f00010149
:20744100000000000000000000000000000000000000000000000000000000000000000e1d
:2074610000000000000000000000000000000000000000000000000000000000000000000b
:207481000000000000000000000000000000000000000000000000000000000000000000eb
:0d74a10000000000000000000000000000de
:2074ae000000000000000000000000000000000000000000000000000000000000000000be
:2074ce0000000000000000000000000000000000000000000000000000000000000000009e
:2074ee0000000000000000000000000000000000000000000000000000000000000000007e
:0d750e000000000000000000000000000070
:20751b00000000000000000000000000000000000000000000000000000000000000000050
:20753b00000000000000000000000000000000000000000000000000000000000000000030
:20755b00000000000000000000000000000000000000000000000000000000000000000010
:0d757b000000000000000000000000000003
:207588000000000000000000000000000000000000000000000000000000000000000000e3
:2075a8000000000000000000000000000000000000000000000000000000000000000000c3
:2075c8000000000000000000000000000000000000000000000000000000000000000000a3
:0d75e8000000000000000000000000000096
:2075f500000000000000000000000000000000000000000000000000000000000000000076
:20761500000000000000000000000000000000000000000000000000000000000000000055
:20763500000000000000000000000000000000000000000000000000000000000000000035
:0d7655000000000000000000000000000028
:20766200000000000000000000000000000000000000000000000000000000000000000008
:207682000000000000000000000000000000000000000000000000000000000000000000e8
:2076a2000000000000000000000000000000000000000000000000000000000000000000c8
:0d76c20000000000000000000000000000bb
:2076cf0000000000000000000000000000000000000000000000000000000000000000009b
:2076ef0000000000000000000000000000000000000000000000000000000000000000007b
:20770f0000000000000000000000000000000000000000000000000000000000000000005a
:0d772f00000000000000000000000000004d
:20773c0000000000000000000000000000000000000000000000000000000000000000002d
:20775c0000000000000000000000000000000000000000000000000000000000000000000d
:20777c000000000000000000000000000000000000000000000000000000000000000000ed
:0d779c0000000000000000000000000000e0
:2077a9000000000000000000000000000000000000000000000000000000000000000000c0
:2077c900080000000000000000000000000000000000000000000000000000000000000098
:2077e900000000000000000000000000000000000000000000000000000000000000000080
:0d7809000000000000000000000000000072
:20781600000000000000000000000000000000000000000000000000000000000000000052
:20783600000000000000000000000000000000000000000000000000000000000000000032
:20785600000000000000000000000000000000000000000000000000000000000000000012
:0d7876000000000000000000000000000005
:207883000000000000000000000000000000000000000000000000000000000000000000e5
:2078a300000c000000000000000000000000000000000000000000000000000000000000b9
:2078c3000000000000000000000000000000000000000000000000000000000000000000a5
:0d78e3000000000000000000000000000098
:2078f000000000000000000000000000000000000000000000000000000000000002000076
:20791000000c0000000000000000000000000000000000000000000000000000000000004b
:20793000000000000000000000000000000000000000000000000000000000000000000037
:0d795000000000000000000000000000002a
:20795d0000000000000000000000000000000000000000000000000000000000000000000a
:20797d000000000000000000000000000000000000000000000000000000000000000000ea
:20799d000000000000000000000000000000000000000000000000000000000000000000ca
:0d79bd0000000000000000000000000000bd
:2079ca0000000000000000000000000000000000000000000000000000000000000100009c
:2079ea0000000000000000000000000000000000000000000000000000000000000000007d
:207a0a0000000000000000000000000000000000000000000000000000000000000000005c
:0d7a2a00000000000000000000000000004f
:207a370000000000000000000000000000000000000000000000000000000000000000002f
:207a570000000000000000000000000000000000000000000000000000000000000000000f
:207a77000000000000000000000000000000000000000000000000000000000000000000ef
:0d7a970000000000000000000000000000e2
:207aa4000000000000000000000000000000000000000000000000000000000000020000c0
:207ac4000000000000000000000000000000000000000000000000000000000000000000a2
:207ae400000000000000000000000000000000000000000000000000000000000000000082
:0d7b04000000000000000000000000000074
:207b1100000000000000000000000000000000000000000000000000000000000000000054
:20907b000000000000001000000000000000000000000000000000000000000000000000c5
:20909b000000000000000000000000000000000000000000000000000000000000000000b5
:0d90bb0000000000000000000000000000a8
:2090c800000000000000000000000000000000000000000000000000000000000000000088
:2090e800000000000000000000000000000000000000000000000000000000000000000068
:20910800000000000000000000000000000000000000000000000000000000000000000047
:0d912800000000000000000000000000003a
:209135000000000000000000000000000000000000000000000000000000000000003800e2
:209155000000000000000000000000000000000000000000000000000000000000000000fa
:209175000000000000000000000000000000000000000000000000000000000000000000da
:0d91950000000000000000000000000000cd
:2091a2000000000000000000000000000000000000000000000000000000000000000000ad
:20a3f10000000000000000000000000000000000000000000000000000000000000000b09c
:20a41100000000000000042d0a0000000300000000000000000000000000000000080000e5
:20a4310000000000000000000000008000000000000000000000000000000000000000008b
:0da4510000000000000000024000000000bc
:20a45e000000000000000000000000000000000000000000000000000000000000000000de
:20a47e0000000000000006ae8a52000008000000000004000000000000000000000c000016
:20a49e000000000000000000000000c00000000000000000000000000000000000000000de
:0da4be00000000000000000202000000008d
:20a4cb00000000000000000000000000000000000000000000000000000000000000003041
:20a4eb00000000000001e003bc1000000f000000000001000000004000000000000000024f
:20a50b00000000000000000000000000000000000000000000000000000000000000000030
:0da52b000000000000000000000000000023
:20a538000000000000000000000000000000000000000000000000000000000000000010f3
:20a55800000000000002400ebc108000080000000000008000000040000000000000000e71
:20a578000000000000000000000000000000000000000000000000000000000000000000c3
:0da5980000000000000000000000000000b6
:20a5a500000000000000000000000000000000000000000000000000000000000000000096
:20a5c500000000000003c02dcc2080000f0000000000004000000000000000000000001caf
:20a5e500237d010000000000000000000000000000000000000000000000000000000000b5
:0da605000000000000000000000000000048
:20a61200000000000000000000000000000000000000000000000000000000000000000028
:20a6320000000000000047209c100000000000000000a08000000000200000000000002095
:20a6520000faa7400000000000000000000000000000000000000000000000000000000007
:0da6720000000000000000000000000000db
:20a67f000000000000000000000000000000000000000000000000000000000000000000bb
:20a69f00013a8400000163a70f000800270000000000000000000000000000000000001c77
:20a6bf0035f9ca00060000000000000000000000000000000000000000000000000000007d
:0da6df000000000000000000027d08700077
:20a6ec0000000000000000000000000000000000000000000000000000000000000000004e
:20a70c00077b88800002e6ce8a0000000000000000008000000000000000000000000000e3
:20a72c00786ac050010000000000000000000000000000000000000000000000000000001a
:0da74c000000000000000000007e8470206e
:20a759000000000000000000000000000000000000000000000000000000000000000000e0
:20a77900000000000002602ea240000007005387000000000000000000000000000000006d
:20a79900400000000000000000000000000000000000000000000000000000000000000060
:0da7b9000000000000000000000300a000f0
:20a7c600000000000000000000000000000000000000000000000000000000000000000073
:20a7e600000000000001e21ec28500000800b7420000020000000000800000000000000682
:20a806007000000000000000000000000000000000000000000000000000000000000000c2
:0da826000000000000000000000d80a000f8
:20a83300000000000000000000000000000000000000000000000000000000000000050000
:20a85300000000004003e39400008020000000000000000000000040000000000004000047
:20a873002cfaca0000000000000000c0000400000000000000000000000000000000000011
:0da8930000000000000000000000000000b8
:20a8a000000000000000000000000000000000000000000000000000000000000000020096
:20a8c00000000000c003c016c020201005800000000000000000004000000000000c0000fe
:20a8e000066bc0400000000000000040000780000000000000000000000000000000000020
:0da90000000000000000000000000000004a
:20a90d0000000000000000000000000000000000000000000000000000000000000000002a
:20a92d0000000000a0000004ea800000070000000000000000000040000000000002800033
:20a94d00400000000000000000000020000400000000000000000000000000000000000086
:0da96d0000000000000000000300000000da
:20a97a000000000000000000000000000000000000000000000000000000000000000000bd
:20a99a0000000000a0000016a5e0000008000000000000000000000000000000000a02004e
:20a9ba00700000000000000000000020000680000000000000000000000000000000000067
:0da9da000000000000000000004000000030
:20a9e70000000000000000000000000000000000000000000000000000000000000000b0a0
:20aa07000003c01004002380000000000000129903014000000000000000003c0501020082
:20aa270020000000000000000000000001c0010f0500000000000000000000000000000019
:0daa47000000000000000000000000000002
:20aa54000000000000000000000000000000000000000000000000000000000000000000e2
:20aa74000023c0800000e600000000038000f22f0200a000000000000000023c08010000ec
:20aa94000400000000000000000000000000018f040000000000000000000000000000000a
:0daab4000000000000000000028000000013
:20aac100000000000000000000000000000000000000000000000000000000000000005025
:20aae10000b80000811647c60fb0000000000e43c800000000000000038c0ac0000890022e
:20ab010040400a50a040000000000001000000000000000000000000002004000000000055
:0dab2100001805c3fc00c00000000000008b
:20ab2e00000000000000000000000000000000000000000000000000000000000000008087
:20ab4e0003800200c0024316e5b02000001e5fc3e0000080000000000f887840200c001c5b
:20ab6e003a18054030000000000000000000000000000000000000000000060000000000fa
:0dab8e0000700d617c00c000400000000060
:20ab9b00000000000000000000000000000000000000000000000000000000000001001089
:20abbb00a0a000000017621cf900000000000203c801214000000008030d028000000000e3
:20abdb0040da00200000008000000000000000000000000000000000000000200000000080
:0dabfb00000085c16c000000038000000018
:20ac08000000000000000000000000000000000000000000000000000000000000000059d3
:20ac2800b3040200000847fdfa000000000032c3e801408000000000090078402000001e70
:20ac480038dd08000000000000000000000000000000000000000000000c060000000000bd
:0dac680000101f2aac080000004000000092
:20ac75000000000000000000000000000000000000000000000000000000000000000010af
:20ac9500f02c00000000200000000000011f0f03c000a0000000002800000ac000000004db
:20acb50000005048000010000000000000000000000000000000000000000023ea000000ca
:0dacd50000500138000000000240000000a7
:20ace200000000000000000000000000000000000000000000000000000000000000000052
:20ad0200138002000001c00000000000099c1743e800400000000000801e300020000000c6
:20ad2200607c5060000000000000000000000000000000000000000000000000ca1a0000a1
:0dad4200008003b48000000000400000000d
:20ad4f000000000000000000000000000000000000000000000000000000000000000001e3
:20ad6f00002000000003c0000f0680000188db294000000000000000001c038000000014cc
:20ad8f000050a058000050800000000000000000000000000000000000000029705a000099
:0dadaf000090037bfc000000e02db01000c0
:20adbc0000000000000000000000000000000000000000000000000000000000000000393e
:20addc00c300020000c06001cf0400000f195856a8000c0000000000001f7000200000362f
:20adfc007a0c5041000000000000000000000000000000000000000000000005da0500003c
:0dae1c0000800125fc000000602c8000007b
:20ae2900000000000000000000000000000000000000000000000000000000000000007099
:20ae490000b80000000004000f068001a08c0b43c400000000000000000c03c0000000800a
:20ae69000010505800000000000000080000000000000000000000000000046540a70000b9
:0dae890000f800000000000160150081903d
:20ae960000000000000000000000000000000000000000000000000000000000000000801c
:20aeb6000184020000000200cf040000570f1e83e0000080000000000101780020000046d9
:20aed600007e504000000000000000000000000000000000000000000000a07ff8a5024050
:0daef6000098000000000002e687a1842003
:20af03000000000000000000000000000000000000000000000000000000000000000070be
:20af2300f03c0000400000010f0408100d8c0f43c400014000000000000e0a00000c000062
:20af430001c81858100000000000000000000000000000000000000000012e0359400000da
:0daf63000008e54290260001c0350f3000c7
:20af7000000000000000000000000000000000000000000000000000000000000000008041
:20af9000058002004001e601ef0600000f1f5203e00000800000000007803040200c0004f3
:20afb0000001244030000000000000000000000000000000000000000000a603ef810000d3
:0dafd0000038a1a8210800000604ed302083
:20afdd0000000000000000000000000000000000000000000000000000000000000000f064
:20affd00e0bc0000a00040010f068000078f0203c400c100000000000b0003c0000a002efc
:20b01d000000504808000000014144000000000000000000000000000000143a780000081f
:0db03d000000df2b4400200340150a000036
:20b04a000000000000000000000000000000000000000000000000000000000000000000e6
:20b06a001100020020020000ef0400000d991283e000200000000000080050402002003673
:20b08a00007e50500800000371410000000000000000000000000000000000047a01000844
:0db0aa000038103f8800a0000036a0000014
:20b0b70000000000000000000000000000000000000000000000000000000000000000f089
:20b0d700e0380000000003f680000002031d0b03c4000000000000020b000a0000000e00af
:20b0f700000000000000b0034281200000000000000000000000000000000042de00000083
:0db1170000f9000000000000200000000012
:20b124000000000000000000000000000000000000000000000000000000000000003000db
:20b14400150002000000e05cd0808000098f3e03e0000000000000000800380020000100ae
:20b1640000000000000080003941400000000000000000000000000000001e63ee01000021
:0db1840000998000000000004280000000e3
:20b1910000000000000000000000000000000000000000000000000000000000000040005e
:20b1b100000000000501e000002000040010701080000000000000040500000000009000cb
:20b1d100000000002040100bfe8400410020000000000400000000000c1000280000003286
:0db1f1000100000000004102440c0b200092
:20b1fe00000000000000000000000000000000000000000000000000000000000000000031
:20b21e000000000008024005a0202000000a3e1414c0000000000000000000000000200091
:20b23e007800000030009805f28900c00040000000000000000000000c000e0000000030e6
:0db25e00003800000000c0020200c71220ee
:20b26b000000000000000000000000000000000000000000000000000000000000000008bb
:20b28b0000016800000240000500100003900c0b0000000000000000000000000000003cfd
:20b2ab0000000000000000eb6d1c000002400000000010070000000000000074f0c320006f
:0db2cb000000d50060220002642c02e000ab
:20b2d8000000000000000000000000000000000000000000000000000000000000000070e6
:20b2f800010168400000471ea5000000091c1f0b008000000000000385000000000000200b
:20b31800000000000000001db605000000000000000003880000000000001639dce30200a2
:0db338000019b9f071880000e60fa2402056
:20b345000000000000000000000000000000000000000000000000000000000000000000e8
:20b365000000000000c1c22d000010000f1058000000000000000000000000000000000091
:20b3850001d050008000088bef1400000350000000000000000000000000007d70580000d9
:0db3a50001080d6e88000802e2ae020000f3
:20b3b20000000000000000000000000000000000000000000000000000000000000040003b
:20b3d200000000000100066ea085200400183314000000000000000000000000000004003a
:20b3f200005e000000005801f701000002000000000000000000000000000023dca50200e4
:0db4120038380da1400000006006aa00209f
:20b41f0000000000000000000000000000000000000000000000000000000000000000000d
:20b43f00808140000000c3fc810000400f09040b0000000000000000000a000000000000fb
:20b45f00000000000000000b791c00000140000000000000000000000001444070ff0000f8
:0db47f00001809c20000000bc6cde3c0009c
:20b48c00000000000000000000000000000000000000000000000000000000000000005050
:20b4ac00a32940000002001ef00000400f01368b0080000000000000000a000000000000c9
:20b4cc00000000000000008bb6050000020000000000040040000000001096395a5f00003c
:0db4ec000070ab2000080102670c81c00059
:20b4f900000000000000000000000000000000000000000000000000000000000000000033
:20b519000000000010002024e4f00001801a5c000000000000000000000000000000810072
:20b539000030f5000005908b7b140400000000000000000f000000000000143a50ff00402e
:0db5590000008d40140002014027e0a18099
:20b566000000000000000000000000000000000000000000000000000000000000040000c1
:20b58600000000001001c025faf00000001d1a82800000000000000000000000000000800c
:20b5a6003168f50080003195f701000000000000000000000000000000001c046a5f0000d0
:0db5c60000501f38008004020004ed140046
:20b5d300000000000000000000000000000000000000000000000000000000000000001048
:20b5f3000b3bac00400342a60a1207000b10000000000000000000000000000000000000dd
:20b613000000000030000000000000000023c00000000000000000000000347ad0bc00408a
:0db633000000b0000000000000000000005a
:20b6400000000000000000000000000000000000000000000000000c00000000000030802e
:20b66000032b9c00c003c654e0242300081a000000000000000000000000000000000000da
:20b6800000000000100001a00000000001d04000000000000000000000201c66ccbd0200bb
:0db6a000000000000000000160000000003c
:20b6ad0000000000000000000000000000000000000000000000000000000000000000007d
:20b6cd0000000000a003440203800280210e0414c0100000000000000000bb80020000001b
:20b6ed0000000000080100c0000000a00000348c30800000000000000a003c3f4bff00088d
:0db70d000008933c80002000028f0c3100ea
:20b71a0000000000000000000000000000000000000000000000000000000000000000000f
:20b73a00000000002000070ec3802280c80f07a8d080008000000000000033c2000000008a
:20b75a0000000000080200000000002000001eca1500000000000000020020024e7f00288f
:0db77a0000781138610120200045efb4a0d7
:20b7870000000000000000000000000000000000400000000000000000000000000000085a
:20b7a7000003c0530000421c00000000200e9af540000200000000000000003c0140001c76
:20b7c7003800f015000070000000000000400d8c911000000000140000003c025aef0000a0
:0db7e7000050e00000000001c2acd00000e6
:20b7f40000000000000000000000000000000000400000000000000000000000000000787d
:20b814000023c0800000001ea0a0000050003bf680000000000000000000023c00000020f4
:20b834000008f010000000000000000002601cac34000000007694000000207b5fa5604045
:0db854000000a00000000002061fd0100040
:20b861000000000000000000000000000000000000000000000000000000000000000200c5
:20b8810090343c008000040000a00000008b1af08030800000000000000f0743c040000065
:20b8a100782900000000900b3804020000434da7500000018e0000000000246efcff00006a
:0db8c10000d191c2b420c800238000000017
:20b8ce00000000000000000000000000000000000000000000000000000000000000010059
:20b8ee0085ac3e00c0000384c0a0000003809330c0400a800000000007817bc3e0000400aa
:20b90e0078c10080003001a034080000000036f45000000b800000000004166d6fdf000079
:0db92e00000087f16008c00040000000002c
:20b93b000000000000000000000000000000000000000000000000000000000000000008e4
:20b95b0090e43c000012420203800000009900000000000000000000000f0243c000002472
:20b97b00380900000000f003414020000bc780000000008108d72c80000000000000000079
:0db99b000000e77000000003e226d180806c
:20b9a800000000000000000000000000000000000000000000000000000000000000003847
:20b9c800032c3e000009e7cf8380280007890000000000000000000001093ac3e010000081
:20b9e80001c1008000808007b00000000002400000000000087f85d800000e6800000000aa
:0dba08000050113200000003407cee2414b9
:20ba1500000000000000000000000000000000000000000000000000000000000000001001
:20ba350000f03c0000e0000c00000001a10058284000000000000000418e0203c000001cc7
:20ba5500402800000000d1000000000001e38000000000200ff01980000000280000000252
:0dba75000070a383c801000042c300a000c0
:20ba820000000000000000000000000000000000000000000000000000000000000000990b
:20baa200856c3e0000000604c50000004380b78090c00400000000000f9932c3e04000007b
:20bac20021e10080000080e0000000000040400000000057800026588000166800000000af
:0dbae200020015ea858c0000e007c0a000fe
:20baef000000000000000000000000000000000000000000000000000000000000000090a7
:20bb0f0080b03c00001343800f040001d308040b0000000000000000070b0703c010002cbe
:20bb2f0034280000000851000000000000000509a080020708b6c20200000002c8000000be
:0dbb4f0000d00bc200010000025d000000ec
:20bb5c000000000000000000000000000000000000000000000000000000000000000019b0
:20bb7c00b1e43e0000c86040ef0610002381378b0080000000000003898116c3e00000209d
:20bb9c0004e1008000000080000000000003beca542000081c9b02880000142aec20000012
:0dbbbc000018a97800080000004680103035
:20bbc90000000000000000000000000000000000000000000000000000000000000000015b
:20bbe900f02c3c8000e1c0010f040003851090000000040000000000800e0a43c0000000e8
:20bc090000090000000000000000000015c03c0050002821107eb4400000004000000000a6
:0dbc29000000b002800400014004e10000b2
:20bc3600000000000000000000000000000000000000000000000000000000000000007975
:20bc560083643e0000020001ef060000001c1702800004000000000000005383e020000022
:20bc760000c000800000000000000000064025c0000000100eb6d1d800000078000000004e
:0dbc96000019833a800000016017c0000013
:20bca300000000000000000000000000000000000000000000000000000000000000000081
:20bcc300a0f43c004a0000000f041300000e0c0e0000000000000000299dba694040000090
:20bce300002900001000000000000000000000000003000080d8280000001c03ebff10006c
:0dbd0300000005736c01000000140e7000bc
:20bd10000000000000000000000000000000000000000000000000000100000000000050c2
:20bd3000c7a03e00c4000601af07030000001b8e008000000000000059897816a000000091
:20bd500001e00080100010000000000000e00000000300011cf797d020000023eaf70000d0
:0dbd70000010096d1c0000000037c8b02055
:20bd7d000000000000000000000000000000000000000000000000000000000000003899d5
:20bd9d0080703c00a00040010f0402800000340000000000000000000b080b03c0000014bb
:20bdbd002808000028000007414000a0044000000002800100303c001a800000d000012820
:0dbddd0000000d3fd0002800023e020000d3
:20bdea000000000000000000000000000000000000000000000000000000000000000098a1
:20be0a00f7203e00a0034000ef060280039a96940000000000000008c9813e03e020047695
:20be2a006ce00080080000017bd52020020000000000800f809fa5908a000001fca000087f
:0dbe4a000001abe950002000606eea00200e
:20be57000000000000000000000000000000000000000000000000000000000000000011ba
:20be77009fa294000a0240368000000005080000000000000000000021080e03c040001479
:20be9700282800000000f0e3c280400003402d0a0010000000b2e94000000402de0001405c
:0dbeb70000090bbff4000000640d93c000f3
:20bec4000000000000000000000000000000000000000000000000000000000000000081dd
:20bee4009f016a000402001cd080040000080000000000000000000059197283e000003639
:20bf04006dc00080000000eba294000000003ceaf0000800003bcb0000002003fd016000aa
:0dbf24000050a9fef000000142a491c000f1
:20bf31000000000000000000000000000000000000000000000000000000000000200208c6
:20bf5100054140048000000000540c02401d5c17c80c000200e000000f1f000000080200a6
:20bf7100000000000005f9df6af8201e0000000000002801000430000000413ae00000304b
:0dbf910001089b03e80400e004000000002c
:20bf9e000000000000000000000000000000000000000000000000000000000000300470df
:20bfbe0000628000c0c00005a0540000200d7e03c00c0a0e02e0900058090000000c000097
:20bfde0000000000001299c9e105001801c20000000000500e06b0088000002eec0a081036
:0dbffe0002798fa815400028428000000045
:20c00b00000000000000000000000000000000000000000000000000000000000000000015
:20c02b000903d40400000226a00000000f1054000800000c3cc00003108038028240000037
:20c04b003c0000000100710337e40000004000000000000000f380086000020000000000ec
:0dc06b00009005fb94440001c31cf002008e
:20c07800000000000000000000000000000000000000000000000000000000000000007038
:20c0980009a968000401c04fc0800010018ed2028000000003c0900021007e061080001c83
:20c0b8000000000000009087a819010000038000000000030e9620000000047000000000d1
:0dc0d800007005f49520000003fdd100006c
:20c0e5000000000000000000000000000000000000000000000000000000000000000050eb
:20c1050005417c000000003400a404000f0053c80000202e3c402000078e3ec28000010052
:20c1250000000000000190c72888000c20024000000010100d1650c000002428cf540100c1
:0dc145000008a3417c0000002380000000e2
:20c1520000000000000000000000000000000000000000000000000000000000000000804d
:20c1720001603c8000006601a054100000003ec680400024224010018f81d7c6000000809d
:20c1920000000000011000013375040a400000000000080001d7d2800000146e5d1800005c
:0dc1b20030118723fc040000e000000000b5
:20c1bf0000000000000000000000000000000000000000000000000000000000000000f070
:20c1df000903d4200a0003d40a0400000080903d4000087e3d6000000f8f00000000800083
:20c1ff003c0000000000f0fb02a800000002bf0000000007007c150000015c00ef10110089
:0dc21f0000f00d00140000000025080000d4
:20c22c0000000000000000000000000000000000000000000000000000000000000000985a
:20c24c000da9680000206020a50410000700b2968000008e06409000079e00000000000083
:20c26c000400000000000008295500006807f6a0a3880000005e160880002003fd002000bc
:0dc28c0000d80f73940c00000024e0002087
:20c29900000000000000000000000000000000000000000000000000000000000000005035
:20c2b900052460010413c3c10504840060805c17c0000002424010000b095814820000000a
:20c2d9000000000000001005270000002403800000000000187c294000000000da20000269
:0dc2f90082098d8000001017c2cfa0100038
:20c30600000000000000000000000000000000000000000000000000000000000000001007
:20c3260003a8b8000a0ae0578504000017807603c800001c7a60500080003b0098800000cf
:20c34600000000000000000d7b94000000004000000000819f9f940000010003ce000081d5
:0dc366000178bffa80800008103dd0000073
:20c37300000000000000000000000000000000000000000000000000000000000030807981
:20c39300054281044003c3140a048400018000000004008000e081000100382940044000c6
:20c3b3000000000030001103b74001c00143c50500030007807efc04000034000000000024
:0dc3d30002080979000000000000000000d1
:20c3e00000000000000000000000000000000000000000000000000000000000001100919b
:20c40000e8614141c04b6621a50400000f0000000004001c01c04b00081eb302800c200054
:20c4200000000000300098892cbd00c003c0458002030001981a380000000000000000008a
:0dc440000570007a000000200000000000e0
:20c44d000000000000000000000000000000000000000000000000000000000000280001a6
:20c46d00d0014140a000433400a49480200e13b9440a017e40e092a000800000000ac040eb
:20c48d003c100541283070f9429800a0e0001f000004b0008f943dc010004002e00a0108aa
:0dc4ad00000000000000000002f7aff000ea
:20c4ba000000000000000000000000000000000000000000000000000000000000280051e9
:20c4da00f5f94101a0020021a0540080000072a15002003e3960029007800000000aa000dc
:20c4fa0000580540282880007165082000030dca040280211d17005080008002ec000008bc
:0dc51a000000000000000000003dd7f00010
:20c527000000000000000000000000000000000000000000000000000000000000000050a4
:20c54700053060000000c2b6800000001910003c0540003c62e040000700d237c0000eac55
:20c567000250a0400000f00dbf1c000001e01e0aa0080007807a8000000034000000000044
:0dc5870008908b7000040000000000000010
:20c5940000000000000000000000000000000000000000000000000000000000000038004f
:20c5b400a53028800000005cd0800010231a023c0000400078e0000000005fb940000000c3
:20c5d400020e5050002801e7bf6c000003602caa540000019c1ad100000000000000000047
:0dc5f40000000bf8080020004000000000cf
:20c601000000000000000000000000000000000000000000000000000000000000200010e9
:20c62100008155208000034000000000001008000004001c004002000d9b0c141208800064
:20c641000140cf00240008e783dc6000402000000000028f0a0000000800002000000000d4
:0dc6610000010000800080000000000000cb
:20c66e000000000000000000000000000000000000000000000000000000000000300080fc
:20c68e0005a15500c000004000000000000e78002004000002000310050a3b94104c001c7c
:20c6ae0000feef0234001015739c080001c0000000000388010000000c00000400000000b0
:0dc6ce000038e1388009c0000000000000c5
:20c6db0000000000000000000000000000000000000000000000000000000000000000102f
:20c6fb0000803d0000000000000000000d000000000000000340000005187680000041407e
:20c71b002860f000000010f5b744000000020000000000009000000000000402d0aa400034
:0dc73b0000000970000000c023e40f501042
:20c74800000000000000000000000000000000000000000000000000000000000000009839
:20c76800e5a3c3200020000000000000070030002000001e02000000050b7742080000805e
:20c7880006daa0000000180b7284000000e000000000000708000000000006021e5540004e
:0dc7a8003859a9a6200000004044c05000f0
:20c7b500000000000000000000000000000000000000000000000000000000000000000064
:20c7d50000003d000000000000000000000b0000000000000240000000080814101004145e
:20c7f5003ec0fa084002f8093bfc400600220000000010078a3800804000002dddc341009b
:0dc8150004508b4014000803c0010a000805
:20c822000000000000000000000000000000000000000000000000000000000000000000f6
:20c8420005a3c300000000000000000050001800200000000000000380183b1410000000e9
:20c862000018f511000411c763940002006000000000080b8196800080009e75dd63500096
:0dc88200008000602800000200078a00808e
:20c88f00000000000000000000000000000000000000000000000000000000000000000089
:20c8af0000003d0000000300000000000080020000000000004000000d0fb0281010000053
:20c8cf002010f0418410118d83dc400041c216ee200000010fdf420000a03c2000000000c3
:0dc8ef000001004008800002e004e995000f
:20c8fc0000000000000000000000000000000000000000000000000000000000000000001c
:20c91c0007a3c300000000400000000007000000200000000000000001808794100000007b
:20c93c00240cf04184000099bb9c8800000025da100003019a134000004006040000000034
:0dc95c00000181a008080001c02006640051
:20c9690000000000000000000000000000000000000000000000000000000000000030007e
:20c9890080803d000040000000000043800000000000400243400000000008141200043c1b
:20c9a90002c0f000000010fb0388000600003d010000128080183cc200874001f034480086
:0dc9c9000000abac200000000406ae5510cd
:20c9d600000000000000000000000000000000000000000000000000000000000000001928
:20c9f6009523c3000000000000000000000070002000a0163800000081803f9410402000e4
:20ca1600206aa000000151ffea840802c1c0148ef4202115801bbdc48002c0015c0442009f
:0dca360008101764280004000794e2540063
:20ca43000000000000000000000000000000000000000000000000000000000000300000a3
:20ca630080803d4040040000000000000f000000000008003a4001000080b42810400006ae
:20ca830042e9d1000000190083d400c001e32f0f00030000105634400000002470000000d4
:0dcaa30000100f01fc4000004036b201847d
:20cab0000000000000000000000000000000000000000000000000000000000000300079bd
:20cad0009523c300c001e00000000000080050002000000000000300039887941800001cc5
:20caf0003bd8a100000091a5abd4814001c234e5a0030003187a2840042004666aa02800c0
:0dcb10000000012bfc084002063d80008063
:20cb1d000000000000000000000000000000000000000000000000000000000000280000d0
:20cb3d0000003d20a0800000000000000f000800000a0ebe01c0029021000c14144200067e
:20cb5d004270f718281af00fbf4400a08442d50f708080508cfe00000a075c40fe0b510018
:0dcb7d000130a083d400200046c400b504a0
:20cb8a00000000000000000000000000000000000000000000000000000000000008000083
:20cbaa000723c300200000000000000000003800200aa05c020000a3d8003f941002002678
:20cbca007acae702080701ab6a8400a0620046ce7022802701d3440002042020ec04480090
:0dcbea0000d817ebd400a002e7ddc0452005
:20cbf70000000000000000000000000000000000000000000000000000000000000000001e
:20cc170000003f08000000010f048000070000000080101c394000000000da000400001cfc
:20cc370025ebe50000800103770161000002e5cd100000511f5b0000000000324cd10000ad
:0dcc570000300b3bfc04000002420a00808c
:20cc64000000000000000000000000000000000000000000000000000000000000000000b0
:20cc84000723c30000000001ef04000008007000200000007e000000000073420000006084
:20cca400624bff00013000a5eb09000401c664ea1000002f0e934050000c0000eca11000c8
:0dccc40000d9a92fdc0000006006ca0000a6
:20ccd100000000000000000000000000000000000000000000000000000000000020000023
:20ccf100000000008000023405a402000000000000004080000002000189302814100000fa
:20cd11000379e50020040900000000800802000000000000000000000801000068e5010093
:0dcd31000051000000000a08200d00508095
:20cd3e000000000000000000000000000000000000000000000000000000000000300000a5
:20cd5e0000000000c00060000a540300000000000000a14000000300039886141400020005
:20cd7e0063ed8540310271c0000000c00060400000000003000000000c008000eb2500001d
:0dcd9e000001800000000405c024ef5400d7
:20cdab00000000000000000000000000000000000000000000000000000000000000000068
:20cdcb00000000000400001fbee000400089000000000000000000000f18f0071600003c4e
:20cdeb0022f983000000500703442000036394af040000000e000000000004654dc3400058
:0dce0b000000a00000000000003c0050806e
:20ce18000000000000000000000000000000000000000000000000000000000000000010ea
:20ce38000000000000000035977008400181000000000000000000000909b38f10a00220ae
:20ce5800067be340000090096a84080001c06eee0400000500000000000024605963618040
:0dce78000000b000000000004616caf400e3
:20ce850000000000000000000000000000000000000000000000000000000000000000008d
:20cea500000000000000002405a400018010000000000000000000000900d3410000009c56
:20cec5003f59e5000208d0d083d400001e403c05a400000000f0000040e60c38207b000097
:0dcee5000008b1c154800a1020270fa200e0
:20cef200000000000000000000000000000000000000000000000000000000000000000020
:20cf120000000000000000200a5400000018000000000000000000000318bec6000000606a
:20cf3200076985400000181163d480000ec0200a56000007007b828000e00001ce7b2200ac
:0dcf52000050013a89080001c034e054008d
:20cf5f000000000000000000000000000000000000000000000000000000000000000000b2
:20cf7f00000000000000002405a40000000008154000000000000000000ef00e10004c1ce4
:20cf9f0030dbe5000000f0b93811000001c2c50f701000000f00000000000028f900000049
:0dcfbf00000190400c000400235c0992006a
:20cfcc00000000000000000000000000000000000000000000000000000000000000000045
:20cfec0000000000000060200a5400000000721540000000000000000780070d10808020b5
:20d00c00057b854000008013aa95010000672cce702000000000000000001e076808000066
:0dd02c000050a0380c08020040600664208f
:20d039000000000000000000000000000000000000000000000000000000000000000000d7
:20d05900000000000400027e0802000000100003c000000000000000008808028010000430
:20d079007f69e500000050e103dc400413c0040db0000050090000000000002e7fa5c8006f
:0dd0990000080741d00000154027002000ce
:20d0a60000000000000000000000000000000000000000000000000000000000000000006a
:20d0c600000000000a014667a0002000001e723c20000000000000000101760288000026be
:20d0e600735d8540000000092b9c080a00e005cfb020002001000000000e40014cda400059
:0dd1060000500dfbd4080009400580a0205a
:20d113000000000000000000000000000000000000000000000000000000000000200000dc
:20d1330000000000803403979000000050080803d02000000000000000001fc00000001cb0
:20d15300007be500000090bb036c00000002e60f000100070008314400014241c0f0009062
:0dd17300000000402860400000148de00026
:20d1800000000000000000000000000000000000000000000000000000000000001000007f
:20d1a0000000000040094055880000002001523c30000000000000000000df820000001cad
:20d1c00063db85400000900f6bec080001c05daa000300080a17315084009479ccb2023098
:0dd1e000000003b02820c00002a4d5f0001c
:20d1ed000000000000000000000000000000000000000000000000000000000000280000fa
:20d20d000043c100200042b405a4008000000803c0000000000002800100f400800a003cb6
:20d22d0060000000080418fd43c0002c014005be2000800700f03d4002002e34200a000883
:0dd24d00000000000000a00363050ca0001d
:20d25a00000000000000000000000000000000000000000000000000000000000028003854
:20d27a000023c100200202a00a54008000005a3c28000000000002801f807a000282000031
:20d29a00740000002830901bb28000aa01603cca1000a008007b814002003c04780a0008fa
:0dd2ba00180000000000a000e3e0ec55208b
:20d2c70000000000000000000000000000000000000000000000000000000000000000182f
:20d2e7009103e9200001c2a58dd0000007000803c100000000000000000ff3400000008030
:20d307002400a020800518c9bf44000000431d00510000071016c00040201c3cf9ff01006a
:0dd3270000789fb4104000086285e75000b8
:20d3340000000000000000000000000000000000000000000000000000000000000000b821
:20d35400116015000000002db770800000003a3c20000000000000000000fe0200000000c9
:20d3740001caa0000000f01d76840000024021e0a000000018d6a0000000046768f70000ec
:0dd394000019b134000000054687945000d8
:20d3a10000000000000000000000000000000000000000000000000000000000002000004c
:20d3c10003e03d2080014026bf04020021000803c000000000000228050a043c100800ac37
:20d3e1002970500060007085794904800000000000020000000000000000042570ff00000e
:0dd401000000f0000000800007cff12608b9
:20d40e000000000000000000000000000000000000000000000000000000000000300000ce
:20d42e00096cbd40c0016014c704031058001a3c2000000000000300050a07bc180c017e13
:20d44e0004eca50030008099329500c020000000000300000000000000007c027c5f0000dd
:0dd46e00000000000000c00003b5b5041070
:20d47b00000000000000000000000000000000000000000000000000000000000000000091
:20d49b000901618000016037cf04000000000803d000000000000000008a043c1040000620
:20d4bb003ef0a00000041807002b840201400000000002010e0000000020004240050000b6
:0dd4db00007100000000000802c3055400ad
:20d4e800000000000000000000000000000000000000000000000000000000000000000024
:20d508008062910800034285d704000041805a3c3000000000000000038a07bc1000001ede
:20d5280005dea501000238007815020402000000000000081f000000004000781a0a000088
:0dd548000080e00000000015e01fa5540069
:20d555000000000000000000000000000000000000000000000000000000000000000000b6
:20d5750005c200020003c026bf04000000000003c0000000000000038000003c1040003c13
:20d5950029f050004000008b4109840001400c0af0000000000000000006003b50f020820a
:0dd5b50030f0e5c100000001e017b7f00004
:20d5c200000000000000000000000000000000000000000000000000000000000000001831
:20d5e2000539100800020695e704000000005a3c2000000000000002800e07bc1000a00092
:20d6020006eca500000001996a0d0c00024037cff200000780000000000000004eaa00019a
:0dd622000081eb71080800004617f5f000cc
:20d62f000000000000000000000000000000000000000000000000000000000000002010ab
:20d64f008132940000014037cf0400000f800003d000a000000000000000003c1040003c5f
:20d66f0034d000000000708043d4050000000c0ff00428090f5f7c1c0020a4425ebf000022
:0dd68f0020f0894000000003c41f0da00022
:20d69c000000000000000000000000000000000000000000000000000000000000000098d6
:20d6bc001d68340000000684d70400010b807a3c3000400000000000000007bc10000000ab
:20d6dc000658050800005801f3d4800000603ccf501410500013b81000436078494f000066
:0dd6fc000080156a80000002020ec250205e
:20d7090000000000000000000000000000000000000000000000000000000000000100b04f
:20d729008d402800000000010550080020080003c0000f00000000005000043c10000000f3
:20d749006459ef000005d10000f06000a020358c340010200ed01400000e14275df0000180
:0dd769000238ab029c0200000214bdb000ab
:20d77600000000000000000000000000000000000000000000000000000000000002808190
:20d796009b33e8000000001c8550000015811a3c20000c0000000000201e03bc180000009f
:20d7b600341bdf30000019a000f008000dc785bc14042810009600083000007458e800025b
:0dd7d60005101b711c08000006401e7200ab
:20d7e30000000000000000000000000000000000000000000000000000000000002000d82e
:20d803000b80650000000276cf04000025080803d0000200000003004010043c1000003edf
:20d823003820550000007000400c200401e345ba150028200ffc16c0004002775f0000011e
:0dd8430000d890817c0000084437000000f0
:20d850000000000000000000000000000000000000004000000000000000000000100079ef
:20d8700081f11969000002c5f70400038f01523c3000060000000100001e03bc180000266f
:20d89000016e550000001000780c080871c04cba56001007001a91c0802604756a802000d8
:0dd8b000007801b97c004016622c88002031
:20d8bd000000000000000000000000000000000000000000000000000000000000280079aa
:20d8dd00052c000020000027bf040080050a0003d0000000000002900000043c10120c008e
:20d8fd0025d0f50028000005300000a274000e0f849080011076ecc00a00002f50e7010059
:0dd91d0038010940c0402a8000000a0000c7
:20d92a0000000000000000000000000000000000000000000000000000000000000800597c
:20d94a00a166000020140014e70402800801723c30000000000002a0000006bc100a00009c
:20d96a007d5805000800180b68200120096017cf04228008181a5c4002000002dafb6200e9
:0dd98a000001cd7040082400000cea0200ee
:20d997000000000000000000000000000000000000000000000000000000000000000570fb
:20d9b700ab324d0000004636cf04082000000283c0000000000000004000043c1040000298
:20d9d70001fef0480005b00fb420000095c0010f501000019a00143240001c28100a00001d
:0dd9f7000000bfebd80000004015c5ac00db
:20da0400000000000000000000000000000000000000000000000000000000000000020000
:20da240000318d00000002c4f70400100000533c20000f00000000000000073c1000400cf6
:20da4400384b7040000280a92c140000480014af5100002f9c17141c00001469fe0a000031
:0dda6400000007ac180000000614fda4002f
:20da7100000000000000000000000000000000000000000000000000000000000000000095
:20da91000d640000800042bc05a402000d0e00000000000000000200050a3370c008000044
:20dab1000270f000200010800000008000000000000000000f000000080024015e04000025
:0ddad10000f0a977dc0000c2440f0af1004c
:20dade00000000000000000000000000000000000000000000000000000000000000000028
:20dafe0001690000c00200000a540300018000000000000000000300081b5358d00c00004d
:20db1e00027a71423000b810000000c00000000000000000000000000c00203aec000000ae
:0ddb3e0004001773d58400024717ea0000a9
:20db4b000000000000000000000000000000000000000000000000000000000000000000ba
:20db6b0000c200000000028405a400000000081400600000000000000080bac2c000000071
:20db8b0063cb8000000009b7c01500000144010fa000000f100000000000ac26cd00010083
:0ddbab00000907b61000000022000b10005a
:20dbb80000000000000000000000000000000000000000000000000000000000000000004d
:20dbd80003e2000a000140000a54000001807f1400400000000000000100ffc11000001c5e
:20dbf80064caa000000051c76811080000029c8fa01043001c00000000000605db0800007c
:0ddc18000070a131680000006055cb1020a5
:20dc25000000000000000000000000000000000000000000000000000000000000000000df
:20dc45000570000000014034eff0000000003016900000000000000005083002400000029f
:20dc650000700b000000500db4200000002202050400030f007f000040003423fec60800d2
:0ddc850000019000000000006675a4000082
:20dc9200000000000000000000000000000000000000000000000000000000000000000171
:20dcb2008360080000000024f3300000030000295000000000000000099987019080001c4e
:20dcd200014e01030000d8c57c14000000604ea504000000001b200000000001ed6c0000c6
:0ddcf200000090000000000147feb000009f
:20dcff0000000000000000000000000000000000000000000000000000000000000000788d
:20dd1f0089b394000001c01c05a400000780d3bb800000000000000805085800000000008c
:20dd3f0002704008800070090041000002c02c02540000070800000000001c2240aa4041d4
:0ddd5f0080789da7fc000000203d025010c0
:20dd6c00000000000000000000000000000000000000000000000000000000000000001087
:20dd8c001de89440000060000a5400000500365dc0000000000000130d813b200080000606
:20ddac00026e00020000180fe0110800020037c4042008050100000000001c061a554002c3
:0dddcc000051edfdfc000001e03fce5020b5
:20ddd9000000000000000000000000000000000000000000000000000000000000040051d5
:20ddf900b57000000000023cf00000000080003c10000000000000000008d8000000008487
:20de190000db0000000001934000a60400402405000010001008280040000434000000005f
:0dde39000008af409044000243a500000027
:20de46000000000000000000000000000000000000000000000000000000000000040000b8
:20de6600a36008000000007dc0800400011a06bc10000000000000000019fb280000017630
:20de8600637a04000000199bea008808026020ca000028001877280400002004000000001a
:0ddea6000059892821880200068fc800203d
:20deb30000000000000000000000000000000000000000000000000000000000000000d07f
:20ded300a9b39400800000000f040200000b520042000000000000000f00b2368000000490
:20def30068000a003000d0a1610000c0000015000080000d1bdc014a10008202ee0b4940e1
:0ddf13000001f5fc74000001441e00000038
:20df20000000000000000000000000000000000000000000000000000000000000000001e0
:20df40008de89400400000018f0401000018ff4000000000000000000d005749500000206f
:20df60007cca0a00303801837e0401c00140378a000000000ad60110840146016c04600093
:0ddf80000000ad60140000000786ca00001c
:20df8d000000000000000000000000000000000000000000000000000000000000000091e3
:20dfad00a3439400200020000f0400800b807016900000000000028001000000000a0000d9
:20dfcd00295c9300080010bd3c95002000000000000080000f041400020000342055500aaa
:0ddfed000001fbba040000000027f0001046
:20dffa00000000000000000000000000000000000000000000000000000000000000000106
:20e01a0081b30009a0014001cf04028009008029500000000000028008000000000a0000dc
:20e03a006c0863402800d00f6801002000028000000280000e1294000a0000046e5560280e
:0de05a000001dd8400000000068fe01000d2
:20e06700000000000000000000000000000000000000000000000000000000000000005148
:20e087000d4000000003420c9ff000000000d7bb80000000000000000000320940000000bf
:20e0a7003e400a00000010a94029000001c295900000000500f43c00000000015ef9080032
:0de0c70005110943e8000000000000000002
:20e0d4000000000000000000000000000000000000000000000000000000000000000050dc
:20e0f400816280000000006d833000000000fa9dc0000000000000000000d75018000014df
:20e11400056a504000008005680100000006f788000000880057940010000001ee090000fe
:0de134000098a9681400000006800000009b
:20e1410000000000000000000000000000000000000000000000000000000000002000306e
:20e1610000415400000020000f0002002f005c3d5000200000000018204d00000008010012
:20e18100400000002405508181400182000005d034021b0080573e4008013c01d90fc10294
:0de1a1008401a5017c80000000000000004a
:20e1ae000000000000000000000000000000000000000000000000000000000000300081a0
:20e1ce00c17154000000e0008f0013005380daa9541000000000002050010000000c0e8064
:20e1ee007000000034068011e01400c401c03f90640320039a9a42400c00003bdd8f5180ca
:0de20e0002018f71400000000000000000c0
:20e21b000000000000000000000000000000000000000000000000000000000000000000e3
:20e23b008be3950000000002800000000780042800000000000000000f00b01400000000b8
:20e25b00400000000000b003c00901000240030e20000000009624c00000362020c50000be
:0de27b0000708dc0100000001000000000b9
:20e28800000000000000000000000000000000000000000000000000000000000000000076
:20e2a8001db8950400000006100800000f0036280200000000000000058083a804000000a7
:20e2c8003000000000001807a01108000067148e202008001e134e40000004244ec50200e1
:0de2e80000181f78318800000000000000c1
:20e2f500000000000000000000000000000000000000000000000000000000000000000009
:20e31500d0417c0100014000a00000000f0fdf400000000000000028550d000000000000b2
:20e3350040000000000000a1a800000000401d0a50001305809c19800001c03aeff20000df
:0de3550000f98974b800000000000000000d
:20e3620000000000000000000000000000000000000000000000000000000000000000009b
:20e3820011717c000000000e1008000289801b0200000000000000102001000000000000fe
:20e3a2006000000000001801e200000002061c852020280f8ef21a408001c03bcaf00000d0
:0de3c200009095b014000000000000000065
:20e3cf0000000000000000000000000000000000000000000000000000000000000000012d
:20e3ef000b6100000001440280000000009f00280800000000000000000000000000002ede
:20e40f00000050500000b0ab034d0000000006eff004000b9074140040003c01d83cc00045
:0de42f0000019d40100400000000000000ee
:20e43c000000000000000000000000000000000000000000000000000000000000000000c0
:20e45c00883a00040000030c10080000071c5b280000000000000000000000000000001cf1
:20e47c00016c50400000581fb39d0c000003af965010000f8eb7294000002601f9bc61000e
:0de49c000001dbf8318800000000000000e6
:20e4a900004000000000000000000000000000000000000000000000000000000000000013
:20e4c9008000000000ecc000a00000002f00503fd8000000000000000000f0060000048453
:20e4e9000010f0404082000979e80014a360000f7000035f00d01980000084003040000052
:0de5090082d90978b8001000000000000061
:20e5160000680000000000000000000000000000000000000000000000000000000000017c
:20e53600900000000008001e1008000050187f3bd0c0000000000003000a97011090002cd4
:20e55600001ef04041310001b3e8001001400eef70200010003e294080016001de400201b1
:0de57600001085f8140010d0000000000017
:20e58300200000000000000000000000000000000000000000000000000000000020000038
:20e5a300bb62c904000340008000000007197400000000000000000000007c3d400002001c
:20e5c30000c00ae03002d10127c000c000039d0ff00000000b782bc00000400000aa0000ec
:0de5e30000f803b58c0000000000000000ef
:20e5f000300000000000000000000000000000000000000000000000000000000010007853
:20e610000839c5000000001410080000098e3e2000a000000000000007981a3f408000006b
:20e6300000180540100078892dc400c0000026cf0001005780bb168804001400daaa0000e9
:0de6500000f0e9af0c000000000000000029
:20e65d00000000000000000000000000000000000000000000000000000000000028000075
:20e67d000f7800000000e400a0000080090f7b80000000000000028050100c3d4202004030
:20e69d000000a0412a8010b1800000300342c40e50168001103a30d012000440d0aa4128e0
:0de6bd0030b1ef820060000000000000009e
:20e6ca00000000000000000000000000000000000000000000000000000000000008000028
:20e6ea00017408000001420c10080088001b3e42000000000000008320185abd4822008c41
:20e70a00016ca04009008001e0140032e16037e2502880080efb18d82a0020201c556088dc
:0de72a000080bd6109080210000000000021
:20e737000000000000000000000000000000000000000000000000000000000000000010b2
:20e757000dfd690400000000000020000900769410000000000000000100d2c60000003c13
:20e7770003f0aa8000000989b95c060003c2010a00000000080000000000000000000000e0
:0de7970000000de6d400000000000ff000af
:20e7a4000000000000000000000000000000000000000000000000000000000000000080d5
:20e7c4000b2e1500000000060008000000003e081800000000000000080a00490000002000
:20e7e40068e8af50000050b7f3540020020657ca000000018100000000000060000000004d
:0de804000000eba5d000000000000ff100a7
:02e81100000005
:02e813001102f0
:02e815000101ff
:20e817000000000000000000000000000000000000000000000000000000000000000000e1
:20e837000000000000000000000000000000000000000000000000000000000000000000c1
:20e857000000000000000000000000000000000000000000000000000000000000000000a1
:0de877000000000000000000000000000094
:020000040001f9
:0d5872000000000000000000000000100019
:20587f00000000000000000000000000000000000000000000000000000000000000000009
:20589f000000000000000000000000000000000000000000000000000000000000000000e9
:2058bf000000000000000000000000000000000000000000000000000000000000000000c9
:0d58df0000000000000000000000000000bc
:2058ec0000000000000000000000000000000000000000000000000000000000000000009c
:20590c0000000000000000000000000000000000000000000000000000000000000000007b
:20592c0000000000000000000000000000000000000000000000000000000000000000005b
:0d594c00000000000000000000000000004e
:2059590000000000000000000000000000000000000000000000000000000000000000002e
:2059790000000000000000000000000000000000000000000000000000000000000000000e
:205999000000000000000000000000000000000000000000000000000000000000000000ee
:0d59b90000000000000000000000000000e1
:2059c6000000000000000000000000000000000000000000000000000000000000000000c1
:2059e6000000000000000000000000000000000000000000000000000000000000000000a1
:205a0600000000000000000000000000000000000000000000000000000000000000000080
:0d5a26000000000000000000000000000073
:205a3300000000000000000000000000000000000000000000000000000000000000000053
:205a5300000000000000000000000000000000000000000000000000000000000000000033
:205a7300000000000000000000000000000000000000000000000000000000000000000013
:0d5a93000000000000000000000000000006
:205aa0000000000000000000000000000000000000000000000000000000000000000000e6
:205ac0000000000000000000000000000000000000000000000000000000000000000000c6
:205ae0000000000000000000000000000000000000000000000000000000000000000000a6
:0d5b00000000000000000000000000000098
:205b0d00000000000000000000000000000000000000000000000000000000000000000078
:205b2d00000000000000000000000000000000000000000000000000000000000000000058
:205b4d00000000000000000000000000000000000000000000000000000000000000000038
:0d5b6d00000000000000000000000000002b
:205b7a0000000000000000000000000000000000000000000000000000000000000000000b
:205b9a000000000000000000000000000000000000000000000000000000000000000000eb
:205bba000000000000000000000000000000000000000000000000000000000000000000cb
:0d5bda0000000000000000000000000000be
:025be7000000bc
:025be9001103a6
:025beb000101b6
:205bed00000000000000000000000000000000000000000000000000000000000000000098
:205c0d00000000000000000000000000000000000000000000000000000000000000000077
:205c2d00000000000000000000000000000000000000000000000000000000000000000057
:0d5c4d00000000000000000000000000004a
:205c5a0000000000000000000000000000000000000000000000000000000000000000002a
:205c7a0000000000000000000000000000000000000000000000000000000000000000000a
:205c9a000000000000000000000000000000000000000000000000000000000000000000ea
:0d5cba0000000000000000000000000000dd
:205cc7000000000000000000000000000000000000000000000000000000000000000000bd
:205ce70000000000000000000000000000000000000000000000000000000000000000009d
:205d0700000000000000000000000000000000000000000000000000000000000000080074
:0d5d27000000000000000000000028000047
:205d340000000000000000000000000000000000000000000000000000000000000000004f
:205d540000000000000000000000000000000000000000000000000000000000000000002f
:205d740000000000000000000000000000000000000000000000000000000000000000000f
:0d5d940000000000000000000000040000fe
:205da1000000000000000000000000000000000000000000000000000000000000000000e2
:205dc1000000000000000000000000000000000000000000000000000000000000000000c2
:205de1000000000000000000000000000000000000000000000000000000000000000000a2
:0d5e01000000000000000000000000000094
:205e0e00000000000000000000000000000000000000000000000000000000000000000074
:205e2e00000000000000000000000000000000000000000000000000000000000000000054
:205e4e00000000000000000000000000000000000000000000000000000000000000000034
:0d5e6e000000000000000000000000000027
:205e7b00000000000000000000000000000000000000000000000000000000000000000007
:205e9b000000000000000000000000000000000000000000000000000000000000000000e7
:205ebb000000000000000000000000000000000000000000000000000000000020000000a7
:0d5edb0000000000000000000000000000ba
:205ee80000000000000000000000000000000000000000000000000000000000000000009a
:205f0800000000000000000000000000000000000000000000000000000000000000000079
:205f2800000000000000000000000000000000000000000000000000000000000000000059
:0d5f4800000000000000000000000000004c
:205f550000000000000000000000000000000000000000000000000000000000000000002c
:205f750000000000000000000000000000000000000000000000000000000000000000000c
:205f95000000000000000000000000000000000000000000000000000000000200000000ea
:0d5fb50000000000000000000000000000df
:205fc2000000000000000000000000000000000000000000000000000000000000000000bf
:205fe20000000000000000000000000000000000000000000000000000000000000000009f
:2060020000000000000000000000000000000000000000000000000000000000000000007e
:0d6022000000000000000000000000000071
:20602f00000000000000000000000000000000000000000000000000000000000000000051
:20604f00000000000000000000000000000000000000000000000000000000000000000031
:20606f00000000000000000000000000000000000000000000000000000000000000000011
:0d608f000000000000000000c00000000044
:20609c000000000000000000000000000000000000000000000000000000000000000000e4
:2060bc000000000000000000000000000000000000000000000000000000000000000000c4
:2060dc000000000000000000000000000000000000000000000000000000000000000000a4
:0d60fc000000000000000000800000000017
:20610900000000000000000000000000000000000000000000000000000000000000000076
:20612900000000000000000000000000000000000000000000000000000000000000000056
:20614900000000000000000000000000000000000000000000000000000000000000000036
:0d6169000000000000000000000000000029
:20617600000000000000000000000000000000000000000000000000000000000000000009
:206196000000000000000000000000000000000000000000000000000000000000000000e9
:2061b6000000000000000000000000000000000000000000000000000000000000000000c9
:0d61d60000000000000000000000000000bc
:2061e30000000000000000000000000000000000000000000000000000000000000000009c
:2062030000000000000000000000000000000000000000000000000000000000000000007b
:20622300000000000000000000000000000000000000000000000000000000020000000059
:0d624300000000000000000000000000004e
:2062500000000000000000000000000000000000000000000000000000000000000000002e
:2062700000000000000000000000000000000000000000000000000000000000000000000e
:206290000000000000000000000000000000000000000000000000000000000000000000ee
:0d62b00000060000000000000000000000db
:2062bd000000000000000000000000000000000000000000000000000000000000000000c1
