:02000000ff00ff
:080002004c6174746963650030
:17000a00694345637562653220323032302e31322e32373934330071
:16002100506172743a2069434534304858344b2d545131343400f9
:1b003700446174653a204f637420333120323032342031393a35323a3034007b
:0200520000ffad
:040054007eaa997e69
:02005800510055
:02005a0001059e
:03005c00920020ef
:03005f00620367d2
:0300620072011018
:0300650082000016
:02006800110085
:02006a00010192
:20006c00000000000000000000000000000000000000000000000000000000000000000074
:20008c00000000000000000000000000000000000000000000000000000000000000000054
:2000ac00000000000000000000000000000000000000000000000000000000000000000034
:0d00cc000000000000000000000000000027
:201bac004000000000000000000000000000000000000000000000000000000000000000d9
:201bcc000000000000000000000000000000000000000000000000000000000000000000f9
:201bec000000000000000000000000000000000000000000000000000000000000000000d9
:0d1c0c0000000000000000000000000000cb
:201c19000000000000000000000000000000000000000000000000000000000000000000ab
:201c390000000000000000000000000000000000000000000000000000000000000000008b
:201c590000000000000000000000000000000000000000000000000000000000000000006b
:0d1c7900000000000000000000000000005e
:201c860000000000000000000000000000000000000000000000000e000000000000000030
:201ca60000000000000000000000000000000000000000000000000000000000000000001e
:201cc6000000000000000000000000000000000000000000000000000000000000000000fe
:0d1ce60000000000000000000000000000f1
:201cf300800000000000000000000000000000000000000000000000000000000000000051
:201d13000000000000000000000000000000000000000000000000000000000000000000b0
:201d3300000000000000000000000000000000000000000000000000000000000000000090
:0d1d53000000000000000000000000000083
:201d600044000000000000000000000000000000000000000000000000000000000000001f
:201d8000000000000000000000000000000000000000000000000000000000000000000043
:201da000000000000000000000000000000000000000000000000000000000000000000023
:0d1dc0000000000000000000000000000016
:201dcd000800000000000000000000000000000000000000000000000000000000000000ee
:201ded000000000000000000000000000000000000000000000000000000000000000000d6
:201e0d000000000000000000000000000000000000000000000000000000000000000000b5
:0d1e2d0000000000000000000000000000a8
:201e3a00000100000000000000000000000000000000000000000000000000000000000087
:201e5a00000000000000000000000000000000000000000000000000000000000000000068
:201e7a00000000000000000000000000000000000000000000000000000000000000000048
:0d1e9a00000000000000000000000000003b
:201ea70000000000000000000000000000000000000000000000000000000000000000001b
:201ec7000000000000000000000000000000000000000000000000000000000000000000fb
:201ee7000000000000000000000000000000000000000000000000000000000000000000db
:0d1f070000000000000000000000000000cd
:201f140000700000000000000000000000000000000000000000000000000000000000003d
:201f340000000000000000000000000000000000000000000000000000000000000000008d
:201f540000000000000000000000000000000000000000000000000000000000000000006d
:0d1f74000000000000000000000000000060
:201f8100000000000000000000000000000000000000000000000000000000000000000040
:2022e9000002000000000000000000000000000000000000000000000000000000000000d3
:202309000000000000000000000000000000000000000000000000000000000000000000b4
:20232900000000000000000000000000000000000000000000000000000000000000000094
:0d2349000000000000000000000000000087
:20235600000000000000000000000000000000000000000000000000000000000000000067
:20237600000000000000000000000000000000000000000000000000000000000000000047
:20239600000000000000000000000000000000000000000000000000000000000000000027
:0d23b600000000000000000000000000001a
:2023c3000000000000000000000000000000000000000000000000000000000000000000fa
:2023e3000000000000000000000000000000000000000000000000000000000000000000da
:202403000000000000000000000000000000000000000000000000000000000000000000b9
:0d24230000000000000000000000000000ac
:2024300000000000000000000000000000000000000000000000000000000000000000008c
:2024500000000000000000000000000000000000000000000000000000000000000000006c
:2024700000000000000000000000000000000000000000000000000000000000000000004c
:0d249000000000000000000000000000003f
:20249d0000000000000000000000000000000000000000000000000000000000000000001f
:2024bd000000000000000000000000000000000000000000000000000000000000000000ff
:2024dd000000000000000000000000000000000000000000000000000000000000000000df
:0d24fd0000000000000000000000000000d2
:20250a000002000000000000000000000000000000000000000000000000000000000000af
:20252a00000000000000000000000000000000000000000000000000000000000000000091
:20254a00000000000000000000000000000000000000000000000000000000000000000071
:0d256a000000000000000000000000000064
:20257700000000000000000000000000000000000000000000000000000000000000000044
:20259700000000001000000000000000000000000000000000000000000000000001000013
:2025b700000000000000000000000000000000000000000000000000000000000000000004
:0d25d70000000000000000000000000000f7
:2025e4000000000000000000000000000000000000000000000000000000000000000000d7
:202604000000000000000000000000000000000000000000000000000000000000000000b6
:20262400000000000000000000000000000000000000000000000000000000000000000096
:0d2644000000000000000000000000000089
:20265100c000000000000000000000000000000000000000000000000000000000000000a9
:20267100000000000000000000000000000000000000000000000000000000000000000049
:20269100000000000000000000000000000000000000000000000000000000000000000029
:0d26b100000000000000000000000000001c
:2026be000000000000000000000000000000000000000000000000000000000000000000fc
:2026de000000000000000000000000000000000000000000000000000000000000000000dc
:2026fe000000000000000000000000000000000000000000000000000000000000000000bc
:0d271e0000000000000000000000000000ae
:20272b0000000000000000000000000000000000000000000000000000000000000000008e
:20274b0000000000000000000000000000000000000000000000000000000000000000006e
:20276b0000000000000000000000000000000000000000000000000000000000000000004e
:0d278b000000000000000000000000000041
:20279800000000000000000000000000000000000000000000000000000000000000000021
:2027b800000000000000000000000000000000000000000000000000000000000000000001
:2027d8000000000000000000000000000000000000000000000000000000000000000000e1
:0d27f80000000000000000000000000000d4
:20280500800000000000000000000000000000000000000000000000000000000000000033
:20282500000000000000000000000000000000000000000000000000000000000000000093
:20284500000000000000000000000000000000000000000000000000000000000000000073
:0d2865000000000000000000000000000066
:20287200000000000000000000000000000000000000000000000000000000000000000046
:20289200000000000000000000000000000000000000000000000000000000000000000026
:2028b200000000000000000000000000000000000000000000000000000000000000000006
:0d28d20000000000000000000000000000f9
:2028df000000000000000000000000000000000000000000000000000000000000000000d9
:2028ff000000000000000000000000000000000000000000000000000000000000000000b9
:20291f00000000000000000000000000000000000000000000000000000000000000000098
:0d293f00000000000000000000000000008b
:20294c0040000000000000000000000000000000000000000000000000000000000000002b
:20296c0000000000000000000000000000000000000000000000000000000000000000004b
:20298c0000000000000000000000000000000000000000000000000000000000000000002b
:0d29ac00000000000000000000000000001e
:2029b9000000000000000000000000000000000000000000000000000000000000000000fe
:2029d9000000000000000000000000000000000000000000000000000000000000000000de
:2029f9000000000000000000000000000000000000000000000000000000000000000000be
:0d2a190000000000000000000000000000b0
:202a2600000000000000000000000000000000000000000000000000000000000000000090
:202a4600000000000000000000000000000000000000000000000000000000000000000070
:202a6600000000000000000000000000000000000000000000000000000000000000000050
:0d2a86000000000000000000000000000043
:202a93008000000000000000000000000000000000000000000000000000000000000000a3
:202ab300000000000000000000000000000000000000000000000000000000000000000003
:202ad3000000000000000000000000000000000000000000000000000000000000000000e3
:0d2af30000000000000000000000000000d6
:202b0000440000000000000000000000000000000000000000000000000000000000000071
:202b2000000000000000000000000000000000000000000000000000000000000000000095
:202b4000000000000000000000000000000000000000000000000000000000000000000075
:0d2b60000000000000000000000000000068
:202b6d000c000000000000000000000000000000000000000000000000000000000000003c
:202b8d00000000000000000000000000000000000000000000000000000000000000000028
:202bad00000000000000000000000000000000000000000000000000000000000000000008
:0d2bcd0000000000000000000000000000fb
:202bda0000010000000000000000000000000000000000000000004000000000000000009a
:202bfa000000000000000000000000000000000000000000000000000000000000000000bb
:202c1a0000000000000000000000000000000000000000000000000000000000000000009a
:0d2c3a00000000000000000000000000008d
:202c47000000000000000000000000000000000000000000000000a00000000000000000cd
:202c670000000000000000000000000000000000000000000000000000000000000000004d
:202c870000000000000000000000000000000000000000000000000000000000000000002d
:0d2ca7000000000000000000000000000020
:202cb400000000000000000000000000000000000000000000000000000000000000000000
:202cd4000000000000000000000000000000000000000000000000000000000000000000e0
:202cf4000000000000000000000000000000000000000000000000000000000000000000c0
:0d2d140000000000000000000000000000b2
:202d2100000000000000000000000000000000000000000000000000000000000000000092
:202d4100000000000000000000000000000000000000000000000000000000000000000072
:202d6100000000000000000000000000000000000000000000000000000000000000000052
:0d2d81000000000000000000000000000045
:202d8e000070000000000000000000000000000000000000000000000000000000000000b5
:202dae00000000000000000000000000000000000000000000000000000000000000000005
:202dce000000000000000000000000000000000000000000000000000000000000000000e5
:0d2dee0000000000000000000000000000d8
:202dfb000000000000000000000000000000000000000000000000000000000000000000b8
:2038c0000000000000000000000000000000000000000000000000000000000000010000e7
:2038e0000000000000000000000000000000000000000000000000000000000000000000c8
:0d39000000000000000000000000000000ba
:20390d0000000000000000000000000000000000000000000000000000000000000000009a
:20392d0000000000000000000000000000000000000000000000000000000000000000007a
:20394d0000000000000000000000000000000000000000000000000000000000000000005a
:0d396d00000000000000000000000000004d
:20397a0000000000000000000000000000000000000000000000000000000000000000002d
:20399a0000000000000000000000000000000000000000000000000000000000000000000d
:2039ba000000000000000000000000000000000000000000000000000000000000000000ed
:0d39da0000000000000000000000000000e0
:2039e7000000000000000000000000000000000000000000000000000000000000000000c0
:203a070000000000000000000000000000000000000000000000000000000000000000009f
:203a270000000000000000000000000000000000000000000000000000000000000000007f
:0d3a47000000000000000000000000000072
:203a5400000000000000000000000000000000000000000000000000000000000000000052
:203a7400000000000000000000000000000000000000000000000000000000000000000032
:203a9400000000000000000000000000000000000000000000000000000000000000000012
:0d3ab4000000000000000000000000000005
:203ac10000000000000000000000000000000000000000000000000a0000000000000000db
:203ae1000000000000000000000000000000000000000000000000000000000000000000c5
:203b01000000000000000000000000000000000000000000000000000000000000000000a4
:0d3b21000000000000000000000000000097
:203b2e00000000000000000000000000000000000000000000000000000000000000000077
:0d3fd00000000000000004000000000000e0
:203fdd000000000000000000000000000000000000000000000000000000000000000000c4
:203ffd000000000000000000000000000000000000000000000000000000000000000000a4
:20401d00000000000000000000000000000000000000000000000000000000000000000083
:0d403d000000000000000000000000000076
:20404a00000000000000000000000000000000000000000000000000000000000000000056
:20406a00000000000000000000000000000000000000000000000000000000000000000036
:20408a00000000000000000000000000000000000000000000000000000000000000000016
:0d40aa000000000000000000000000000009
:2040b7000000000000000000000000000000000000000000000000000000000000000000e9
:2040d7000000000000000000000000000000000000000000000000000000000000000000c9
:2040f7000000000000000000000000000000000000000000000000000000000000000000a9
:0d411700000000000000000000000000009b
:2041240000000000000000000000000000000000000000000000000000000000000000007b
:2041440000000000000000000000000000000000000000000000000000000000000000005b
:2041640000000000000000000000000000000000000000000000000000000000000000003b
:0d418400000000000000000000000000002e
:2041910000000000000000000000000000000000000000000000000000000000000000000e
:2041b1000000000000000000000000000000000000000000000000000000000000000000ee
:2041d1000000000000000000000000000000000000000000000000000000000000000000ce
:0d41f10000000000000000000000000000c1
:2041fe000000000000000000000000000000000000000000000000000000000000000000a1
:20421e00000000000100000000000004000000000000000000000004000000000000000077
:20423e00000000000000000000000000000000000000000000000000000000000000000060
:0d425e000000000000000000000000000053
:20426b00000000000000000000000000000000000000000000000000000000000000000033
:20428b00000000000000000000000000000000000000000000000000000000000000000013
:2042ab000000000000000000000000000000000000000000000000000000000000000000f3
:0d42cb0000000000000000000000000000e6
:2042d8000000000000000000000000000000000000000000000000000000000000000000c6
:2042f80000000000010000000000000400000000000010000000000400000000000010007d
:20431800000000000040000000000001000000000000040000000000001000000000000030
:0d4338004000000000000100000000000037
:20434500000000000000000000000000000000000000000000000000000000000000000058
:20436500000000000000000000000000000000000000000000000000000000000000000038
:20438500000000000000000000000000000000000000000000000000000000000000000018
:0d43a500000000000000000000000000000b
:2043b2000000000000000000000000000000000000000000000000000000000000000000eb
:2043d2000000000000000000000000000000000000000000000000000000000000000000cb
:2043f2000000000000000000000000000000000000000000000000000000000000000000ab
:0d441200000000000000000000000000009d
:20441f0000000000000000000000000000000000000000000000000000000000000000007d
:20443f00000000000100000000000004000000000000000000000004000000000000100044
:20445f000000000000400000000000010000000000000400000000000010000000000000e8
:0d447f0040000000000001000000000000ef
:20448c00000000000000000000000000000000000000000000000000000000000000000010
:2044ac000000000000000000000000000000000000000000000000000000000000000000f0
:2044cc000000000000000000000000000000000000000000000000000000000000000000d0
:0d44ec000000000000000000003fe0510053
:2044f9000000000000000000000000000000000000000000000000000000000000000000a3
:20451900000000000000000000000000000000000000000000000000000000000000000082
:20453900000000000000000000000000000000000000200000000000000000000000000042
:0d4559000000000000000000003d05a00073
:20456600000000000000000000000000000000000000000000000000000000000000000035
:20458600000000000000000000000000000000000000000000000000000000000000000015
:2045a6000000000000000000000000000000000000000000000000000000000000000000f5
:0d45c60000000000000000000000000000e8
:2045d3000000000000000000000000000000000000000000000000000000000000000000c8
:2045f3000000000000000000000000000000000000000000000000000000000000000000a8
:20461300000000000000000000000000000000000000000000000000000000000000000087
:0d463300000000000000000000000000007a
:2046400000000000000000000000000000000000000000000000000000000000000000005a
:2046600000000000000000000000000000000000000000000000000000000000000000003a
:2046800000000000000000000000000000000000000000000000000000000000000000001a
:0d46a000000000000000000000000000000d
:2046ad000000000000000000000000000000000000000000000000000000000000000000ed
:2046cd000000000000000000000000000000000000000000000000000000000000000000cd
:2046ed000000000000000000000000000000000000000000000000000000000000000000ad
:0d470d00000000000000000000000000009f
:20471a0000000000000000000000000000000000000000000000000000000000000000007f
:20473a000000000000000000000000000000000000000e0000000000000000000000000051
:20475a0000000000000000000000000000000000000000000000000000000000000000003f
:0d477a000000000000000000000000000032
:20478700000000000000000000000000000000000000000000000000000000000000000012
:2047a7000000000000000000000000000000000000000000000000000000000000000000f2
:2047c7000000000000000000000000000000000000000000000000000000000000000000d2
:0d47e70000000000000000000000000000c5
:2047f4000000000000000000000000000000000000000000000000000000000000000000a5
:20481400000000000000000000000000000000000000000000000000000000000000000084
:20483400000000000000000000000000000000000000000000000000000000000000000064
:0d4854000000000000000000000000000057
:20486100000000000000000000000000000000000000000000000000000000000000000037
:20488100000000000000000000000000000000000000000000000000000000000000000017
:2048a1000000000000000000000000000000000000000000000000000000000000000000f7
:0d48c10000000000000000000000000000ea
:2048ce000000000000000000000000000000000000000000000000000000000000000000ca
:2048ee000000000000000000000000000000000000000000000000000000000000000000aa
:20490e00000000000000000000000000000000000000000000000000000000000000000089
:0d492e00000000000000000000000000007c
:20493b0000000000000000000000000000000000000000000000000000000000000000005c
:20495b0000000000000000000000000000000000000000000000000000000000000000003c
:20497b0000000000000000000000000000000000000000000000000000000000000000001c
:0d499b00000000000000000000000000000f
:2049a8000000000000000000000000000000000000000000000000200000000000000000cf
:2049c8000000000000000000000000000000000000000000000000000000000000000000cf
:2049e8000000000000000000000000000000000000000000000000000000000000000000af
:0d4a080000000000000000000000000000a1
:204a1500000000000000000000000000000000000000000000000000000000000000000081
:204a3500000000000000000000000000000000000000000000000000000000000000000061
:204a5500000000000000000000000000000000000000000000000000000000000000000041
:0d4a75000000000000000000000000000034
:204a8200000000000000000000000000000000000000000000000000000000000000000014
:204aa2000000000000000000000000000000000000000000000000000000000000000000f4
:204ac2000000000000000000000000000000000000000000000000000000000000000000d4
:0d4ae2000000000000000000074000000080
:204aef000000000000000000000000000000000000000000000000000000000000000000a7
:204b0f00000000000000000000000000000000000000000000000000000000000000000086
:204b2f00000000000000000000000000000000000000000000000000000000000000000066
:0d4b4f000000000000000002c74000000050
:204b5c004000000000000000000000000000000000000000000000000000000000000000f9
:204b7c00000000000000000000000000000000000000000000000000000000000000000019
:204b9c007c4000800002700161418200000015896a0800081f700020000800000000000057
:0d4bbc000001e00000000060001f9b0100f0
:204bc90000300000000000000000000000000000000000000000000000000000000000009c
:204be9000000000000000000000000000000000000000000000000000000000000000000ac
:204c09007c20000200000800014101000003c1096020000f0e0340000000000000000000f5
:0d4c29000004000000000000001fc3000098
:204c360000000000000000000000000000000000000000000000000000000000000000005e
:204c5600000000000000000000000000000000000001000000000000000000000000001627
:204c760068e8f080180070003941c00a07c3d40f08000040013a3c200600200000000018c8
:0d4c960000000371418260000281c3052807
:204ca300800000000000000000000000000000000000000000000000000000000000000071
:204cc3000000000000000000000000000000000000000000000000038000000000000c0240
:204ce30040000f10203808010281040409639400f08010000e0003c20800340000000020b7
:0d4d030000000041416180000401030484b0
:204d1000400000000000000000000000000000000000000000000000000000000000000043
:204d3000000000000000000000000000000000000000000000000000000000000000000063
:204d5000006896a0300000000000000003600c0008001000003a3c200c000000000000301c
:0d4d7000000000000000400007800000006f
:204d7d0008000000000000000000000000000000000000000000000000000000000000000e
:204d9d000000000000000000000000000000000000000000000000000000000000000000f6
:204dbd00002e960030000000000000000140000000006000000003c20ca1000000000010bf
:0d4ddd00000000000000c000000000000009
:204dea000001000000000000000000000000000000000000000000000000000000000000a8
:204e0a00000000000000000000000000000000000000000000000000000000000000004048
:204e2a000048f0a00201000000000000040004000800000000123c2000000000000000000f
:0d4e4a00041005b015c20000078000000034
:204e570000000000000000000000000000000000000000000000000000000000000000003b
:204e770000000000000000000000000000000000000000000000000000000000000000809b
:204e970000200f000102000000000000080002000000038b000803c20000800000000004e0
:0d4eb70080080000156100000400000000ec
:204ec4000000000000000000000000000000000000000000000000000000000000000000ce
:204ee4000000000000000000000000000000000000000000000000000000000000000000ae
:204f04000068f080000200017141e000a1c78c9968040000015a3c280000800000000000e8
:0d4f24000080102141a200020000000000ea
:204f3100000000000000000000000000000000000000000000000000000000000000000060
:204f5100000000000000000000000000000000000000000000000000000000000000000040
:204f710000000f01000000000141000a002402d9600000000f0003c000a0400000000004af
:0d4f91000050f34281c0000040000000000d
:204f9e000000000000000000000000000000000000000000000000000000000000000000f3
:204fbe000000000000000000000000000000000000000000000000000000000000000024af
:204fde000208aa0000005000000000000000468f0880028d80123c20500140007e50700006
:0d4ffe0000000000000002000000000000a4
:20500b00000000000000000000000000000000000000000000000000000000000000000085
:20502b000000000000000000000000000000000000000000000000000000000000000c1445
:20504b0000c0550100000800000000000002c000f0002807000003c00000800010507040f3
:0d506b000000800000000020c3c000000015
:20507800000000000000000000000000000000000000000000000000000000000000000018
:20509800000000000000000000000000000000000000000000000000000000000000041ed6
:2050b800000000000010508139412000480006996804000800123c2000000078000000001c
:0d50d8002200000000000000400000000069
:2050e5000000000000000000000000000000000000000000000000000000000000000000ab
:2051050000000000000000000000000000000000000000000000000000000000000000008a
:2051250000000000000009b041418400001000d96000000f000803c8000000000000000080
:0d514500010000000000001020000000002c
:2051520000000000000000000000000000000000000000000000000000000000000000003d
:2051720000000000000000000000000000000000000000000000000000000000000000001d
:205192000000000034010000000000040800068f08000000001a3c200c00007800000030f5
:0d51b200020000000000c0000016c05410f4
:2051bf000000000000000000000000000000000000000000000000000000000000000000d0
:2051df000000000000000000000000000000000000000000000000000000000000000000b0
:2051ff0000000000240200000000000210000200f0100020000803c2080000000000002041
:0d521f000100000000008000024200570462
:20522c00000000000000000000000000000000000000000000000000000000000000000062
:20524c00000000000000000000000000000000000000000000000000000000000000002022
:20526c00304000800080500380020000e167968f0804000780123c2000000030caa5404050
:0d528c0000000000000000e0000ff5240409
:205299000000000000000000000000000000000000000000000000000000000000000000f5
:2052b9000000000000000000000000000000000000000000000000000000000000000024b1
:2052d90040280000010050000000080800024200f0400000800003c900000039ec590000ae
:0d52f9000000f0000000000042ccfad000e0
:20530600000000000000000000000000000000000000000000000000000000000000000087
:20532600000000000000000000000000000000000000000000000000000000000000002047
:205346000148f08000000001265a00000200208aa000400000023c0006000004dee540989e
:0d5366000001f3e71d006002033fec16009c
:2053730000000000000000000000000000000000000000000000000000000000000000001a
:205393000000000000000000000000000000000000000000000000000000000000000024d6
:2053b30000000f00400000a03a580404014014055080400000003c08080000356ea4002034
:0d53d3000001a76704408481c41efc300067
:2053e0000000000000000000000000000000000000000000000000000000000000000000ad
:20540000000000000000100000000000000000000000000000000000000000000000000676
:205420000168f0800000000123c204040006c0000000102d0a538400040004004ac7401058
:0d5440000000af78cd00c8000387ec7600b7
:20544d0000000000000000000000000000000000000000000000000200000000000000003d
:20546d0000000000000000000000000000000000000000000000000000000000000000021d
:20548d0000200f0840000000003c000800028000000008510a5b800004003400eac1013070
:0d54ad0000f109345c2044000706bc20001b
:2054ba000000000000000000000000000000000000000000000000000000000000000000d2
:2054da000000000000000000000000000000000000000000000000000000000000000000b2
:2054fa0004e8f080000500e1a3c2000004005580800040000000000000000004000000004e
:0d551a00850017e71d0000604036fe5600ba
:20552700000000000000000000000000000000000000000000000000000000000000000064
:20554700000000000000000000000000000000000000000000000000000000000000000044
:2055670024000f0040025100803c80000bc3f6800000400500000000000000280000000071
:0d55870007f0e7ef04040010201d9a40001b
:205594000000000000000000000000000000000000000000000000000000000000000000f7
:2055b4000000000000000000000000000000000000000000000000000000000000000000d7
:2055d40001c8f0a000000003a3c200000000000000000301803282820000007c00000000c0
:0d55f40000001000000000024067ec741081
:20560100000000000000000000000000000000000000000000000000000000000000000089
:20562100000000000000000000000000000000000000000000000000000000000000000069
:2056410000200f0040000000803c800000000000000000000000028800001464000000009c
:0d5661000070f00000000001636eec2000fe
:20566e0000000000000000000000000000000000000000000000000000000000000000001c
:20568e000000000000000000000000000000000000000000000000000000000000000000fc
:2056ae000068f08000207885a3c280000a002fe05100000000000000000000640000000034
:0d56ce0010f007631d040083e04ec50000ce
:2056db000000000000000000000000000000000000000000000000000000000000000000af
:2056fb0000000000000000000000000000000000000000000000000000000000000000246b
:20571b0024000f0140000900803c8000064035000000008000000000000000640000000056
:0d573b003078076b04000002438005020077
:20574800000000000000000000000000000000000000000000000000000000000000001031
:20576800000000000000000000000000000000000000000000000000000000000000000021
:2057880005e8f08000000005a3c240000000000000005001815b814000000602fba1000068
:0d57a80018f80f730d04000143800000008d
:2057b5000000000000000000000000000000000000000000000000000000000000000000d4
:2057d5000000000010000000000000000000000000000000000000000000000000000000a4
:2057f5003c200f0840009000003c2000200000000000084988d4000000001602f9002000f7
:0d58150000700927880000000280000000dc
:205822000000000000000000000000000000000000000000000000a00000000000000000c6
:2058420000383c200000000000000000000000000000008000000000000000000000000032
:2058620000e8f08000000000225a00001407008f501000000000000000001e00000000002a
:0d5882000200e3671d04000be7858bc000ea
:20588f000000000000000000000000000000000000000000000000400000000000000000b9
:2058af0000003c8000000000000000000000000000000140000000000000000000000000dc
:2058cf0024200f00c000900039a42000e804250fa110000000000000000002000000000046
:0d58ef000811076b04000015c036c3c0008f
:2058fc0000000000000000000000000000000000000000000000000000000000000000008c
:20591c0000000000000000000000000000000000000000000000000000000000000040002b
:20593c0001c8f0800030000323c24000e0079cfe860000000800000000002002fba10000ed
:0d595c00000015e828020010070ef74000bb
:2059690000000000000000000000000000000000000000000000000000000000000000001e
:205989000000000000000000000000000000000000001000000000000000000000000000ee
:2059a90000000f1400000000803c100002438ecf000000001c00000000003c037c00000076
:0d59c9000000e080280000000435fa008096
:2059d6000000000000000000000000000000000000000000000000000000000000000000b1
:2059f600000000000000000000000000000000000006001c000000000000000000000080ef
:205a1600000996a00000000323c2006001e78edc160180000006bc1006000c7bcaa54200f0
:0d5a3600050005ba808100180780000000ff
:205a4300000000000000000000000000000000000000000000000000000000000000000043
:205a6300000000000000000000000000000000000008000200000000000000000000000019
:205a8300000e690100000000003c808000243ccc3002000000043c101800024050a1010055
:0d5aa300020000c280040014078000000013
:205ab0000000000000000000000000000000000000000000000000000000000000000000d6
:205ad000000000000000000000000000000000000000000000000000000000000000008036
:205af0000008f02000000003a3c2404000000000000103258e0000000c001e340000000081
:0d5b10000000e00000000214072580500096
:205b1d00000000000000000000000000000000000000000000000000000000000000000068
:205b3d00000000000000000000000000000000000000000000000000000000000000004008
:205b5d000000f00000000000003c00400002400000030040800000000400027c0000000035
:0d5b7d0000000000000004080027000000e8
:205b8a000000000000000000000000000000000000000000000000000000000000000000fb
:205baa000000000000000000000000000000000000000000000000000000000000000000db
:205bca00000000000000000023c0400008003ccc740000001c07bc1400200036cbc94000f7
:0d5bea000059e5f2800100000000000000fd
:205bf70000000000000000000000000000000000000000000000000000000000000000008e
:205c170000000000000000000000000000000000000000000000000000000000000000006d
:205c3700000000000000000003c0000006402ebc2080000010003c100008002859c3100002
:0d5c570010b1d082800000000000000000ad
:205c6400000000000000000000000000000000000000000000000000000000000000000020
:205c84000000000000000000000000000000000000000000006010000000000000004e0042
:205ca40000000000000201c00000000401e286c8340003871800000000002001ee83400040
:0d5cc40022000fbf9440000000000000000f
:205cd1000000000000000000000000000000000000000000000000000000000000000000b3
:205cf100000000000000000000000000000000000000000000000000000000000000a000f3
:205d110000000000000570000000000203440d8e320000009e00000000080424c8e300402e
:0d5d31000100053b0000080000000000001c
:205d3e00000000000000000000000000000000000000000000000000000000000000000045
:205d5e00000000000000000000000000000000000000000100000000000000000000000024
:205d7e0000000000000030000000000003c39cdc741000500012a944000020796dc74000b7
:0d5d9e000400052028800000403ea05000b9
:205dab000000000000000000000000000000000000000000000000000000000000000000d8
:205dcb000000000000000000000000000000000000000000000000000000000000000000b8
:205deb0000000000000008000000000003e426fc200000200098154000003c25efc1000049
:0d5e0b0000700fc000000000203f05a20045
:205e180000000000000000000000000000000000000000000000000000000000000000006a
:205e38000000000000e0000000000000000000000000000000000000000000000000480022
:205e58000000000001380000000000040802cd8b060000000033014000083c00ee8340001c
:0d5e78002080e00000000800000000000095
:205e85000000000000000000000000000000000000000000000000000000000000000000fd
:205ea500000000000000000000000000000000000000000000000000000000000000202499
:205ec50000000000028000000000000205c7cdff1000000000b4000000001600eae30800f2
:0d5ee50000b0d0000000040003c000000069
:205ef200000000000000000000000000000000000000000000000000000000000000000090
:205f120000000000000000000000000000000000000c000e00000000000000000000000055
:205f320000000000000000000000000800e03ec5940700078000000000002000ecc741022c
:0d5f520000780000000000000300000000c7
:205f5f00000000000000000000000000000000000000000000000000000000000000000022
:205f7f0000000000000000000000000000000000000c0000000000000000000000000024d2
:205f9f000000000000100000000000000023d4da500200000000000000003c3debc100008a
:0d5fbf00209800000000000003800000009a
:205fcc000000000000000000000000000000000000000000000000000000000000000000b5
:205fec000000000000000000000000000000871410201000000000000000000000000000ba
:20600c0000000000000000ef76848000000000000000001000000000000c00040cf060008f
:0d602c00001189a394800000000000000016
:20603900000000000000000000000000000000000000000000000000000000000000000047
:206059000000000000000000000000000900102810001000000000001000000000000000b6
:20607900000000000000700d680000000003c00000002020000000000000003c00f04000b3
:0d60990000d095670000000000000000002e
:2060a6000000000000000000000000000000000000000000000000000000000000000000da
:2060c6000000000000000000000001800d001babd00610000000000020000000000600005a
:2060e60000000000000439c000000060000000000000000800000000060000000000001817
:0d61060000700000000000e000000000003c
:2061130000000000000000000000000000000000000000000000000000000000000000006c
:206133000000000000000000000002000180002bd24810000000000050000000000800001c
:20615300000000000002090000000080000000000000000700000000080000000000002072
:0d6173000008000000000000000000000017
:206180000000000000000000000000000000000000000000000000000000000000000000ff
:2061a00000000000000000000000010000000000000c00000400000000000000000c0400be
:2061c00000000000043871c0000000400a0695eb0600000000000000040800000000003040
:0d61e000200003b684800000000fef520085
:2061ed00000000000000000000000000000000000000000000000000000000000000000092
:20620d0000000000000000000000020000000000000410003800000000000000000400001f
:20622d0000000000040001000000004015403cbf2000000000000000040000000000003068
:0d624d00053001338800000000010f5100f2
:20625a00000000000000000000000000000000000000000000000000000000000000000024
:20627a000000000000000000000000000000fb400001000e000000000000000000000000ba
:20629a0000000000000070e33828000000e000000000000000000000000100000000000050
:0d62ba0000700fb4f500002000000000008f
:2062c7000000000000000000000000000000000000000000000000000000000000000000b7
:2062e70000000000000000000000000000003b5000011002000000000000000000000000f9
:206307000000000000000000802801000020000000000000000000000000000000000000ad
:0d63270000f005b4e00000000000000000e0
:20633400000000000000000000000000000000000000000000000000000000000000000049
:206354000000000000000000000000000900362000c0000005404400000000000000008001
:20637400001cf041000000100000001000001cbc760009000000000000001e000000000027
:0d63940000d0012f9500000ae0000000007d
:2063a1000000000000000000000000000000000000000000000000000000000000000000dc
:2063c1000000000000000000000000000b8fb00000000000302000000000000000000140e1
:2063e1002410f0400000009000000010200034ac1000000000000000000002000000000086
:0d6401000098033e90000014e00000000031
:20640e0000000000000000000000000000000000000000000000000000000000000000006e
:20642e0000000000000000000000000003881009108000000000000000000000000000001a
:20644e0070000000000001800000000000000000000000000000000000000000000000023b
:0d646e000070800000000400c0000000006d
:20647b00000000000000000000000000000000000000000000000000000000000000000001
:20649b00000000000000000000000000009000091010000000000000000000000000000028
:2064bb000000000000000000000000000000000000000000090000000000000000000000b8
:0d64db00007900000000000020000000001b
:2064e800000000000000000000000000000000000000000000000000000000000000000094
:20650800000000000000000000000000018007a59040000000000000000000000000000076
:206528000000000000009801e02000000203000000000800000000000000000000000000ad
:0d6548000001e00000000409c00dee500449
:20655500000000000000000000000000000000000000000000000000000000000000000026
:206575000000000000000000000000000000741a5000000000000000000000000000000028
:20659500000000000000980d6000000001c000000000100000000000000000000000000010
:0d65b5000001000000000010201ccc0000c0
:2065c2000000000000000000000000000000000000000000000000000000000000000000b9
:2065e200000000000000000000000300001d0000000400000000000000000000000c000069
:206602000000000000000000288008008000000000000000403e28040c0000000000000092
:0d6622008000c0000000002000000000000b
:20662f0000000000000000000000000000000000000000000000000000000000000000004b
:20664f0000000000000000000000020000180000000c0000000000000000000000080000fd
:20666f00000000000000000900400000e1c0000000000000000828021802000000000001d4
:0d668f000000000000000023434000000058
:20669c000000000000000000000000000000000000000000000000000000000000000000de
:2066bc00000000000000000000000003800000000000a000000000000000000000000c008f
:2066dc00000000000000000d3ac1400000001600080003800100000000000e025ea10000a5
:0d66fc000071d7fbd4800000032ce4500097
:20670900000000000000000000000000000000000000000000000000000000000000000070
:20672900000000000000000000000000000000000000100000000000000000000000000040
:20674900000000000000000f6fc8000000020200002000000f00000000000000cce2080001
:0d6769000001a043d4010010042cb4a010c6
:20677600000000000000000000000000000000000000000000000000000000000000000003
:206796000000000000000000000000000000562588060000000000000000000000000000da
:2067b60000000000180000000000006000001e100801800800f6295030011c016af5200050
:0d67d6000080a3aa840c00c2000000000097
:2067e300000000000000000000000000000000000000000000000000000000000000000096
:20680300000000000000000000000000000a042580080000000000000000000000000000ba
:20682300000000002000000000000080000000f00002000700303e980000823800f52040a7
:0d68430008110983880000014000000000da
:20685000000000000000000000000000000000000000000000000000000000000000000028
:20687000000000000000000000000000050000000000014000000000000000000001008041
:2068900000000000300000a00000004000004e996d00002000000000000e1603f8a102059d
:0d68b000005800000000204207800000009a
:2068bd000000000000000000000000000000000000000000000000000000000000000000bb
:2068dd00000000000000000000000000000000000000000000000000000000000000a100fa
:2068fd00000000003000500000000040004302d9640000000000000000000003e0d1000283
:0d691d00807000000000000140000000003c
:20692a0000000000000000000000000000000000000000000000000000000000000000004d
:20694a00000000000000000000000000050000000000000e0000000000000000000080009a
:20696a00000000000000000000000000e0e01c996e0010000000000000807602eea1200271
:0d698a000080053394000a00e01cde500080
:206997000000000000000000000000000000000000000000000000000000000000000000e0
:2069b700000000000000000000000000008b00000000003c00000002800000000000400037
:2069d700000000000000000000000000004380f9640000000000000000409c006fe2000053
:0d69f70008b00b2b00200a02c017ac0200f4
:206a0400000000000000000000000000000000000000000000000000000000000000000072
:206a24000000000000000000000000000000000000000000016024000700000000000c00ba
:206a4400000000000002000000000000000014996c00000000000000000000000000000017
:0d6a64000091c1f3d4840001c05cbe50005d
:206a7100000000000000000000000000000000000000000000000000000000000000000005
:206a9100000000000000000000000000000000000000000000000000008000000000000065
:206ab100000000000005040000000008000002d9641000000000000000001c000000000049
:0d6ad10000180083d4200002c3ceac0200e8
:206ade00000000000000000000000000000000000000000000000000000000000000000098
:206afe0000000000000000000000000000008694004000000000000000000000000001001d
:206b1e0000000000000000000000000000038e996800280180160150400020027de52000d1
:0d6b3e000050f7fa840800c0002f8e5000b0
:206b4b0000000000000000000000000000000000000000000000000000000000000000002a
:206b6b000000000000000000000000000000d0280000000000000000000000000000008092
:206b8b00000000000000000000000000000742a960800000000801524000143deac0000082
:0d6bab000001f18344000003421c9c020025
:206bb8000000000000000000000000000000000000000000000000000000000000000000bd
:206bd8000000000000000000000000000000000000000000000000000001730140000000e8
:206bf80000000000000000f00000000201c014996808000180000000000006000000000125
:0d6c1800008005bb9c4810020240000000f7
:206c250000000000000000000000000000000000000000000000000000000000000000004f
:206c4500000000000000000000000000000000000000000000000000000f080140000000d7
:206c650000000000000001d000000004002000d960000000000000000000002000000000c1
:0d6c850000d00903ec000000c3c0000000b7
:206c92000000000000000000000000000000000000000000000000000000000000000000e2
:206cb2000000000000000000000000000000000000040000000000000000000000000000be
:206cd20000000000000001c0000000ca01c016996c03000000000000000000240000000014
:0d6cf200003889f82000000a0000000000b2
:206cff00000000000000000000000000000000000000000000000000000000000000000075
:206d1f0000000000000000000000000000000000000c000000000000000000000000000048
:206d3f00000000000000010000000084002340f9660200000000000000001438000000009f
:0d6d5f0028d9ab3000800012400000000079
:206d6c004004000000000000000000000000000000000000000000000000000000001000b3
:206d8c000000000000000000af040000001b5800200012000000000000088784000000007c
:206dac0000000000000000000000000000001c99680001050000000000002001dbc1500097
:0d6dcc0002018000000000006024c00000f3
:206dd900002c0000000000000000000000000000000000000000000000000000000000006e
:206df90000000000000000010f041000000d0240000010803c000000001db24800400000e4
:206e1900000000000000000000000000000002e96050000000000000000044004ecb40021f
:0d6e39002800000000000000003d00501087
:206e460000000000000000000000000000000000000000000000000000000000000000002c
:206e66000000000060000000ef04000008011a3c2806101c000001800008b320008000160e
:206e860000000000000000e00000006008001e996800200501000000060000380000001809
:0d6ea60000000000000064c806afa08000de
:206eb3008000000000000000000000000000000000000000000000004000000000000000ff
:206ed30000000000800000010f0400000f0e0803c00810020000020000109800001000004f
:206ef300000000000000010000000080040000b9608010000e0000000802004000000020d9
:0d6f13002000000000008a10003ef0000089
:206f20007000000000000000000000000000000000000000000000000000000000000000e1
:206f40000000000040000001cf0400038000523c2404500000000101800072828800000096
:206f60000000000000000000000000c00000548aa40000001e000000000000786cf5400098
:0d6f80000201e0000000201406afe0202018
:206f8d001800000000000000000000000000000000000000000000000000000000000000cc
:206fad0000000000800002410f0500000f000003c0041000000002000b0008028000000070
:206fcd000000000000000000000000c00003420aa41000000000000000004042e05a5000d5
:0d6fed000501000000000000003e00000053
:206ffa00000100000000000000000000000000000000000000000000000000000000000076
:20701a000000000000000001cf04000005800265a400104000000000000000295000000029
:20703a000000000000008003760000000800400000000000001ac2000000200000000000f9
:0d705a00000003f015200800601fe0a000fa
:20706700000000000000000000000000000000000000000000000000000000000000000009
:2070870000000000000000010f040000070f02da40001000000000000000f01694000000f9
:2070a700000000000000f0037b0000000403c00000000000001e000000001c00000000005a
:0d70c7000000008015400400000100a00042
:2070d40000000000000000000000000000000000000000000000000000000000000000009c
:2070f40000000000000000000000000000000265a000000000600000080102bc1800000036
:2071140007d81d000008500de3dc080000000000000000000000000000441c04fe00408011
:0d71340000000173d4002000030feff224cf
:2071410000000000000000000000000000000000000000000000000000000000000000002e
:207161000000000000000000000000000000021a4a000000000060000708003c10000340aa
:2071810032cdbd004000780343fc010000000000000000000000000000200223600570809d
:0d71a100000000c3d4070000041e0fd0043e
:2071ae000004000000000000000000000000000000000000000000000000000000000000bd
:2071ce000000000000000241e50400080000723c200000000000000000001300400000004c
:2071ee000400000000008010000000000000000000000000000000000000003800000000b5
:0d720e000001b000000000020277ca541019
:20721b00003000000000000000000000000000000000000000000000000000000000000023
:20723b00000000000000069d0a04000000000803c020001c000000000009fa8000000000f8
:20725b0024000000000070e00000000000000000000000000000000000000000000000009f
:0d727b000090a00000000002c6240fa70034
:207288000000000000000000000000000000000000000000000000000000000000000000e6
:2072a8000000000000000200000000000008123c200000000000000008017209500040201a
:2072c8000000000001020000000000000002400000000000000000000000810000000004dc
:0d72e80000000004914400026020ff14002b
:2072f500000000000000000000000000000000000000000000000000000000000000000079
:2073150000000000000044000000000000000803c000400000000000010f37569400000ccc
:2073350000000000000d00000000000000074000000000000000000000017c000000000463
:0d73550000000d3061040009c26ccf2480df
:2073620000000000000000000000000000000000000000000000000000000000000000000b
:2073820000000000c00006800000000000005a3c200c0000000003000000023c180000008a
:2073a2000000000000000400000000c000c0000000000000000000000c003c0000000032cd
:0d73c200000008701501c00bc3f5ca54048b
:2073cf0000000000000000000000000000000000000000000000000000000000000000009e
:2073ef0000000000800000000000000000000003c0640000000002000f00043c1000000076
:20740f00000000000000f0000000008000200000000000000000000008003c000000002168
:0d742f0000000b0029008015e3fe0f55043e
:02743c0000004e
:02743e0011013a
:02744000010148
:2074420000000000000000000000000000000000200000000000000000000000000000000a
:207462000000000000000000000000200000000000000000000000000000000000000000ea
:207482000000000000000000000000000000000000000000000000000000000000000000ea
:0d74a20000000000000000000000000000dd
:2074af000000000000000000000000000000000000000000000000000000000000000000bd
:2074cf0000000000000000000000000000000000000000000000000000000000000000009d
:2074ef0000000000000000000000000000000000000000000000000000000000000000007d
:0d750f00000000000000000000000000006f
:20751c0000000000000000000000000000000000100000000000000000000000000000003f
:20753c0000000000000000000000001000000000000000000000000000000000000000001f
:20755c0000000000010000000000000000000000000000000000000000000000000000000e
:0d757c0000000000000004000000000000fe
:207589000000000000000000000000000000000000000000000000000000060000000000dc
:2075a9000000000000000000000000000000000000000000000000000000000000000000c2
:2075c9000000000000000000000000000000000000000000000000000000000000000000a2
:0d75e9000000000000000000000000000095
:2075f600000000000000000000000000000000002000000040000000000000000000000015
:20761600000000000000000000000020000000000000000300000000000000000000000031
:20763600000000000000000000000000000000000000000000000000000000000000000034
:0d7656000000000000000000000000000027
:207663000000000000000000000000000000000000000000c0000000000000000000000047
:20768300000000000000000000000000000000c00000000000000000000000000000000027
:2076a3000000000000000000000000000000000000000000000000000000000000000000c7
:0d76c30000000000000000000000000000ba
:2076d00000000000000000000000000000000000000000000000000000000000000000009a
:2076f00000000000000000000000000000000000000000000000000000000000000000007a
:20771000000000000200000000000000000000000000000000000000000000000000000057
:0d7730000000000000000800000000000044
:20773d0000000000000000000000000000000000000000000000000000000000000000002c
:20775d000000000000005800000000000000000000000000000000000000000000000000b4
:20777d000000000000000000000000000000000000000000000000000000000000000000ec
:0d779d0000000000000000000000000000df
:2077aa0000000000000000000000000000000000000160000000000000000000000000005e
:2077ca000800000000000020000000000000018000000000020000000000000000000000f4
:2077ea0000000000000000040000000000000000000000000000000000000000000000007b
:0d780a000000000000000000001000000061
:20781700000000000000000000000000000000000000000000000000000000000000000051
:20783700000000000000000000000000000000000000000000000000000000000000000031
:20785700000000000000000000000000000000000000000000000000000000000000000011
:0d7877000000000000000000000000000004
:207884000000000000000000000000000000000000000000000000000000000000000000e4
:2078a400000c000000000000100000000000000000000000000300000000000000000000a5
:2078c4000000000000000000000000000000000000000000000000000000000000000000a4
:0d78e4000000000000000000000000000097
:2078f100000000000000000000000000000000000000000000000000000000000002000075
:207911000000000008000000200000000000000000008000000200000000000000000000ac
:20793100000000000000000000000000000000000000000000000000000000000000000036
:0d7951000000000000000000000000000029
:20795e000000000000000000000000000000000000000000000000000000000000000020e9
:20797e0000000000000000000000000000e000000000000000060000000000000000000003
:20799e000000000000000000000000000000000000000000000000000000000000000000c9
:0d79be0000000000000000000000000000bc
:2079cb00000000000000000000000000000000000000000000000000000000000001001487
:2079eb00000000000400000000000000000000000000400000000000000000000000000038
:207a0b0000000000000000000000000000000000000000000000000000000000000000005b
:0d7a2b00000000000000000000000000004e
:207a38000000000000000000000000000000000000000040000000000000000000000000ee
:207a58000000000000000000000000000000400000000000000000000000000000000000ce
:207a78000000000000000004000000000000000000000000000000000000000000000000ea
:0d7a980000000000000000000010000000d1
:207aa5000000000000000000000000000000000000000000000000000000000000020000bf
:207ac500000000000800000000000000000000000000800000000000000000000000000019
:207ae500000000000000000000000000000000000000000000000000000000000000000081
:0d7b05000000000000000000000000000073
:207b1200000000000000000000000000000000000000000000000000000000000000000053
:207b3200000000000000000000000000000000000000000000000000000000000000000033
:0d8838000000000000001000000000000023
:20884500000000000000000000000000000000000000000000000000000000000000000013
:208865000000000000000000000000000000000000000000000000000000000000000000f3
:208885000000000000000000000000000000000000000000000000000000000000000000d3
:0d88a50000000000000010000000000000b6
:2088b2000000000000000000000000000000000000000000000000000000000000000000a6
:2088d200000000000000000000000000000000000000000000000000000000000000000086
:2088f200000000000000000000000000000000000000000000000000000000000000000066
:0d8912000000000000000000000000000058
:20891f00000000000000000000000000000000000000000000000000000000000000000038
:20893f00000000000000000000000000000000000000000000000000000000000000000018
:20895f000000000000000000000000000000000000000000000000000000000000000000f8
:0d897f0000000000000000000000000000eb
:20898c000000000000000000000000000000000000000000000000000000000000000000cb
:2089ac000000000000000000000000000000000000000000000000000000000000000000ab
:2089cc0000000000000000000000000000000000000000000000000000000000000000008b
:0d89ec00000000000000000000000000007e
:2089f90000000000000000000000000000000000000000000000000000000000000000005e
:208a190000000000000000000000000000000000000000000000000000000000000000003d
:208a390000000000000000000000000000000000000000000000000000000000000000001d
:0d8a59000000000000000000000000000010
:208a660000000000000000000000000000000000000000000000004140000000000000006f
:208a8600000000000000000000000000000000000000800000000000000000000000000050
:208aa6000000000000000000000000000000000000000000000000000000000000000000b0
:0d8ac60000000000000000000000000000a3
:208ad300000000000000000000000000000000000000000000000080000000000000000003
:208af300000000000000000000000000000000000000000000000000000000000000000063
:208b1300000000000000000000000000000000000000000000000000000000000000000042
:0d8b33000000000000000000000000000035
:208b4000000000000000000000000000000000000000000000000000000000000000000015
:208b60000000000000000000000000000000000000000000000000000000000000000000f5
:208b80000000000000000000000000000000000000000000000000000000000000000000d5
:0d8ba00000000000000000000000000000c8
:208bad000000000000000000000000000000000000000000000000000000000000000000a8
:208bcd00000000000000000000000000000000000000000000000000000000000000000088
:208bed00000000000000000000000000000000000000000000000000000000000000000068
:0d8c0d00000000000000000000000000005a
:208c1a0000000000000000000000000000000000000000000000000000000000000000003a
:208c3a0000000000000000000000000000000000000000000000000000000000000000001a
:208c5a000000000000000000000000000000000000000000000000000000000000000000fa
:0d8c7a0000000000000000000000000000ed
:208c87000001000000000000000000000000000000000000000000000000000000000000cc
:208ca7000000000000000000000000000000000000000000000000000000000000000000ad
:208cc70000000000000000000000000000000000000000000000000000000000000000008d
:0d8ce7000000000000000000000000000080
:208cf400080000000000000000000000000000000000000000000000000000000000000058
:208d140000000000000000000000000000000000000000000000000000000000000000003f
:208d340000000000000000000000000000000000000000000000000000000000000000001f
:0d8d54000000000000000000000000000012
:208d61004000000000000000000000000000000000000000000000000000000000000000b2
:208d81000000000000000000000000000000000000000000000000000000000000000000d2
:208da1000000000000000000000000000000000000000000000000000000000000000000b2
:0d8dc10000000000000000000000000000a5
:208dce00800000000000000000000000000000000000000000000000000000000000000005
:208dee00000000000000000000000000000000000000000000000000000000000000000065
:208e0e00000000000000000000000000000000000000000000000000000000000000000044
:0d8e2e000000000000000000000000000037
:208e3b00000000000000000000000000000000000000000000000000000000000000000017
:208e5b0000000000000000000000002800000000000040000000000000000000000000008f
:208e7b000000000000000000000000000000000000000000000000000000000000000000d7
:0d8e9b0000000000000000000000000000ca
:208ea800003400000000000000000000000000000000000000000000000000000000000076
:208ec80000000000000000000000000000000000000000000000000000000000000000008a
:208ee80000000000000000000000000000000000000000000000000000000000000000006a
:0d8f0800000000000000000000000000005c
:208f15004004000000000000000000000000000000000000000000000000000000000000f8
:208f350000000000000000000000000000000000000000000000000000000000000000001c
:208f55000000000000000000000000000000000000000000000000000000000000000000fc
:0d8f750000000000000000000000000000ef
:208f82000000000000000000000000000000000000000000000000000000000000000000cf
:208fa2000000000000000000000000000000000000000000000000000000000000000000af
:208fc20000000000000000000000000000000000000000000000000000000000000000008f
:0d8fe2000000000000000000100000000072
:208fef00000000000000000000000000000000000000000000000000000000000000000062
:20900f00000000000000000000000000000000000000000000000000000000000000000041
:20902f00000000000000000000000000000000000000000000000000000000000000000021
:0d904f000000000000000000000000000014
:20905c000000000000000000000000000000000000000000000000000000000000000000f4
:20907c000000000000000000000000000000000000000000000000000000000000000000d4
:20909c000000000000000000000000000000000000000000000000000000000000000000b4
:0d90bc0000000000000000000000000000a7
:2090c900000000000000000000000000000000000000000000000000000000000000000087
:2090e900000000000000000000000000000000000000000000000000000000000000000067
:20910900000000000000000000000000000000000000000000000000000000000000000046
:0d9129000000000000000000000000000039
:20913600000000000000000000000000000000000000000000000000000000000000000019
:209156000000000000000000000000000000000000000a00000000000000000000000000ef
:209176000000000000000000000000000000000000000000000000000000000000000000d9
:0d91960000000000000000000000000000cc
:2091a3000000000000000000000000000000000000000000000000000000000000000000ac
:2091c30000000000000000000000000000000000000000000000000000000000000000008c
:2091e30000000000000000000000000000000000000000000000000000000000000000006c
:0d920300000000000000000000000000005e
:2092100000000000000000000000000000000000000000000000000000000000000000003e
:2092300000000000000000000000000000000000000000000000000000000000000000001e
:209250000000000000000000000000000000000000000000000000000000000000000000fe
:0d92700000000000000000000000000000f1
:20927d000000000000000000000000000000000000000000000000000000000000000000d1
:20929d000000000000000000000000000000000000020000000000000000000000000000af
:2092bd00000000000000000000000000000000000000000000000000000000000000000091
:0d92dd000400000000000000000000000080
:2092ea00000000000000000000000000000000000000000000000000000000000000000064
:20930a00000000000000000000000010000000000000000000000000000000000000000033
:20932a00000000000000000000000000000000000000000000000000000000000000000023
:0d934a000000000000000000000000000016
:209357000000000000000000000000000000000000000000000000000000000000000000f6
:209377000000000000000000000000280000000000000000000000000000000000000000ae
:209397000000000000000000000000000000000000000000000000000000000000000000b6
:0d93b70000000000000000000000000000a9
:2093c400000000000000000000000000000000000000000000000000000000000000000089
:2093e400000000000000000000000000000000000000000000000000000000000000000069
:20940400000000000000000000000000000000000000000000000000000000000000000048
:0d942400000000000000000000000000003b
:2094310000000000000000000000000000000000000000000000000000000000000000001b
:209451000000000000000000000000000040000000000000000000000000000000000000bb
:209471000000000000000000000000000000000000000000000000000000000000000000db
:0d94910000000000000000000000000000ce
:20949e000000000000000000000000000000000000000000000000000000000000000000ae
:2094be0000000000000000000000000000000000000000000000000000000000000000008e
:2094de0000000000000000000000001000000000000000000000000000000000000000005e
:0d94fe000000000000000000000000000061
:20950b00000000000000000000000000000000000000000000000000000000000000000040
:20952b00000000000000000000000000000000000000000000000000000000000000000020
:20954b00000000000000000000000000000000000000000000000000000000000000000000
:0d956b0000000000000000000000000000f3
:209578000000000000000000000000000000000000000000000000000000000000000000d3
:209598000000000000000000000000000000000000000000000000000000000000000000b3
:2095b800000000000000000000000000000000000000400000000000000000000000000053
:0d95d8000000000000000000000000000086
:2095e500000000000000000000000000000000000000000000000000000000000000000066
:20960500000000000000000000000000000000000000000000000000000000000000000045
:209625000000000000000000000000000000000000004000000000000000000000000000e5
:0d9645000000000000000000000000000018
:209652000000000000000000000000000000000000000000000000000000000000000000f8
:209672000000000000000000000000000000000000000000000000000000000000000000d8
:209692000000000000000000000000000000000000000000000000000000000000000000b8
:209d8f00400000000000000000000000000000000000000000000000000000000000000074
:209daf00000000000000000000000000000000000000000000000000000000000000000094
:209dcf00000000000000000000000000000000000000000000000000000000000000000074
:0d9def000000000000000000000000000067
:209dfc008000000000000000000000000000000000000000000000000000000000000000c7
:209e1c00000000000000000000000000000000000000000000000000000000000000000026
:209e3c00000000000000000000000000000000000000000000000000000000000000000006
:0d9e5c0000000000000000000000000000f9
:209e69000000000000000000000000000000000000000000000000000000000000000000d9
:209e89000000000000000000000000000000000000000000000000000000000000000000b9
:209ea900000000000000000000000000000000000000000000000000000000000000000099
:0d9ec900000000000000000000000000008c
:209ed600080000000000000000000000000000000000000000000000400000000000000024
:209ef60000000000000000000000000000000000000000000000000000000000000000004c
:209f160000000000000000000000000000000000000000000000000000000000000000002b
:0d9f3600000000000000000000000000001e
:209f430044000000000000000000000000000000000000000000000080000000000000003a
:209f63000000000000000000000000000000000000000000000000000000000000000000de
:209f83000000000000000000000000000000000000000000000000000000000000000000be
:0d9fa30000000000000000000000000000b1
:209fb00000340000000000000000000000000000000000000000000000000000000000005d
:209fd000000000000000000000000000000000000000000000000000000000000000000071
:209ff000000000000000000000000000000000000000000000000000000000000000000051
:0da010000000000000000000000000000043
:20a01d0000040000000000000000000000000000000000000000000000000000000000001f
:20a03d00000000000000000000000000000000000000000000000000000000000000000003
:20a05d000000000000000000000000000000000000000000000000000000000000000000e3
:0da07d0000000000000000000000000000d6
:20a08a000000000000000000000000000000000000000000000000000000000000000000b6
:20a0aa00000000000000000000000000000000000000004000000000000000000000000056
:20a0ca00000000000000000000000000000000000000000000000000000000000000000076
:0da0ea000000000000000000000000000069
:20a0f700000000000000000000000000000000000000000000000000000000000000000049
:20a11700000000000000000000000000000000000000000000000000000000000000000028
:20a13700000000000000000000000000000000000000000000000000000000000000000008
:0da1570000000000000000000000000000fb
:20a164000000000000000000000000000000000000000000000000000000000000000000db
:20a184000000000000000000000000000000000000000000000000000000000000000000bb
:20a1a40000000000000000000000000000000000000000000000000000000000000000009b
:0da1c400000000000000000000000000008e
:20a1d10000000000000000000000000000000000000000000000000000000000000000006e
:20a1f10000000000000000000000000000000000000000000000000000000000000000004e
:20a2110000000000000000000000000000000000000000000000000000000000000000002d
:0da231000000000000000000000000000020
:20a23e00000000000000000000000000000000000000000000000000000000000000000000
:20a25e000000000000000000000000000000000000000000000000000000000000000000e0
:20a27e000000000000000000000000000000000000000000000000000000000000000000c0
:0da29e0000000000000000000000000000b3
:20a2ab00000000000000000000000000000000000000000000000000000000000000000093
:20a2cb00000000000000000000000000000000000000000000000000000000000000000073
:20a2eb00000000000000000000000000000000000000000000000000000000000000000053
:0da30b000000000000000000000000000045
:20a31800000200000000000000000000000000000000000000000000000000000000000023
:20a33800000000000000000000000000000000000000000000000000000000000000000005
:20a358000000000000000000000000000000000000000000000000000000000000000000e5
:0da3780000000000000010000000000000c8
:20a385000000000000000000000000000000000000000000000000000000000000000000b8
:20a3a500000000000000000000000000000000000000000000000000000000000000000098
:20a3c500000000000000000000000000000000000000000000000000000000000000000078
:0da3e500000000000000100000000000005b
:20a3f20000000000000000000000000000000000000000000000000000000000000000004b
:20a41200000000000000000000000000000000000004002403cb0000000000000000000034
:20a4320000000000000000000000000000000000000000000000000000000000000000000a
:0da4520000000000000000000000000000fd
:20a45f000000000000000000000000000000000000000000000000000000000000000000dd
:20a47f00000000000000000000000000000000000004000070000000000000000000000049
:20a49f0000000000000000000000000000000000000000000000000000000000000000009d
:0da4bf000000000000000000000000000090
:20a4cc00000000000000000000000000000000000000000000000000000000000000000070
:20a4ec00000000000000000000000000000000000000000062cb0000000000000000000023
:20a50c0000000000000000000000000000000000000000000000000000000000000000002f
:0da52c000000000000000000000000000022
:20a53900000000000000000000000000000000000000000000000000000000000000000002
:20a55900000000000000000000000000000000000000000072000000000000000000000070
:20a579000000000000000000000000000000000000000000000000000000000000000000c2
:0da5990000000000000000000000000000b5
:20a5a600000000000000000000000000000000000000000000000000000000000000000095
:20a5c600000000000000000000000000000000000000000c22c9000000000000000000007e
:20a5e600000000000000000000000000000000000000000000000000000000000000000055
:0da606000000000000000000000000000047
:20a61300000000000000000000000000000000000000000000000000000000000000000027
:20a633000000000000000000000000000000000000000020300100000000000000000000b6
:20a653000000000000000000000000000000000000000000000000000000000000000000e7
:0da6730000000000000000000000000000da
:20a680000000000000000000000000000000000000000000000000000000000000000000ba
:20a6a000000000000000000000000000000000000000003e03c04000000000000000000059
:20a6c00000000000000000000000001000000000000000000000000000000000000000006a
:0da6e000000000000000000000000000006d
:20a6ed0000000000000000000000000000000000000000000000000000000000000000004d
:20a70d00000000000000000000000000000000000000002e73e0100000000000000000009b
